{
  "transactions": [
    {
      "hash": "0xea40862971f5a094a52671002454a943da42f5c7450a17b531bfcef3037b1c62",
      "transactionType": "CALL",
      "contractName": null,
      "contractAddress": "0x97c00a13876d5fccdf2d87b35bcaac98bb03a07f",
      "function": "setTokenAllowed(address,bool)",
      "arguments": [
        "0x036CbD53842c5426634e7929541eC2318f3dCF7e",
        "true"
      ],
      "transaction": {
        "from": "0x16dd701a8d550951ad2f61808667ee2842ff645a",
        "to": "0x97c00a13876d5fccdf2d87b35bcaac98bb03a07f",
        "gas": "0xf92d",
        "value": "0x0",
        "input": "0x15f69012000000000000000000000000036cbd53842c5426634e7929541ec2318f3dcf7e0000000000000000000000000000000000000000000000000000000000000001",
        "nonce": "0x48",
        "chainId": "0x14a34"
      },
      "additionalContracts": [],
      "isFixedGasLimit": false
    },
    {
      "hash": "0xe1cfbf7efc917917f4e8a3c4053d5cf5572fdcc15b45f67105c91267bf00cf8d",
      "transactionType": "CALL",
      "contractName": null,
      "contractAddress": "0x7930a04ac1541256af472f19292de6a18993e6b3",
      "function": "setFeeTokenConfig(address,bool,uint8,uint256)",
      "arguments": [
        "0x036CbD53842c5426634e7929541eC2318f3dCF7e",
        "true",
        "6",
        "1000000"
      ],
      "transaction": {
        "from": "0x16dd701a8d550951ad2f61808667ee2842ff645a",
        "to": "0x7930a04ac1541256af472f19292de6a18993e6b3",
        "gas": "0x1f7ec",
        "value": "0x0",
        "input": "0xa2c174e1000000000000000000000000036cbd53842c5426634e7929541ec2318f3dcf7e0000000000000000000000000000000000000000000000000000000000000001000000000000000000000000000000000000000000000000000000000000000600000000000000000000000000000000000000000000000000000000000f4240",
        "nonce": "0x49",
        "chainId": "0x14a34"
      },
      "additionalContracts": [],
      "isFixedGasLimit": false
    }
  ],
  "receipts": [
    {
      "status": "0x1",
      "cumulativeGasUsed": "0x362db8",
      "logs": [],
      "logsBloom": "0x00000000000000000000000000000000000000000000000000000000000000000000000000000000000000000000000000000000000000000000000000000000000000000000000000000000000000000000000000000000000000000000000000000000000000000000000000000000000000000000000000000000000000000000000000000000000000000000000000000000000000000000000000000000000000000000000000000000000000000000000000000000000000000000000000000000000000000000000000000000000000000000000000000000000000000000000000000000000000000000000000000000000000000000000000000000",
      "type": "0x2",
      "transactionHash": "0xea40862971f5a094a52671002454a943da42f5c7450a17b531bfcef3037b1c62",
      "transactionIndex": "0x12",
      "blockHash": "0xdf038f177121355a3e950d2f340abae397ed2c59cbd4bbfcccf451fe79c00c10",
      "blockNumber": "0x22c8cc5",
      "gasUsed": "0xb467",
      "effectiveGasPrice": "0x124f80",
      "blobGasUsed": "0x79e0",
      "from": "0x16dd701a8d550951ad2f61808667ee2842ff645a",
      "to": "0x97c00a13876d5fccdf2d87b35bcaac98bb03a07f",
      "contractAddress": null,
      "daFootprintGasScalar": "0x138",
      "l1BaseFeeScalar": "0x44d",
      "l1BlobBaseFee": "0x3d2c1cf",
      "l1BlobBaseFeeScalar": "0xa118b",
      "l1Fee": "0x16b1a6bb9",
      "l1GasPrice": "0x3ee9444d",
      "l1GasUsed": "0x640"
    },
    {
      "status": "0x1",
      "cumulativeGasUsed": "0x379a8d",
      "logs": [
        {
          "address": "0x7930a04ac1541256af472f19292de6a18993e6b3",
          "topics": [
            "0x9f9f346844d910b1cadde0ebde2eeee0e6c66646f1e62127ef976c4ea3bf46d7",
            "0x000000000000000000000000036cbd53842c5426634e7929541ec2318f3dcf7e"
          ],
          "data": "0x0000000000000000000000000000000000000000000000000000000000000001000000000000000000000000000000000000000000000000000000000000000600000000000000000000000000000000000000000000000000000000000f4240",
          "blockHash": "0xdf038f177121355a3e950d2f340abae397ed2c59cbd4bbfcccf451fe79c00c10",
          "blockNumber": "0x22c8cc5",
          "blockTimestamp": "0x696c786a",
          "transactionHash": "0xe1cfbf7efc917917f4e8a3c4053d5cf5572fdcc15b45f67105c91267bf00cf8d",
          "transactionIndex": "0x13",
          "logIndex": "0x22",
          "removed": false
        }
      ],
      "logsBloom": "0x00000000000000000000000000000000000000000000000000000000000000000000000000000000000000000000000000000000000000000100000000000000000000000000000000000000000000000000000000000000000000000000000000000000000000000000000000000000000000000000000000000000000040000000000040000000000000000000000000000000000000000000010000000000000000000000000000000000000000000000000000000000100000000000000000200000000000000000000000000000000000004000000000000000000000000000000000000000200000000040000000000000000000000000000000000000",
      "type": "0x2",
      "transactionHash": "0xe1cfbf7efc917917f4e8a3c4053d5cf5572fdcc15b45f67105c91267bf00cf8d",
      "transactionIndex": "0x13",
      "blockHash": "0xdf038f177121355a3e950d2f340abae397ed2c59cbd4bbfcccf451fe79c00c10",
      "blockNumber": "0x22c8cc5",
      "gasUsed": "0x16cd5",
      "effectiveGasPrice": "0x124f80",
      "blobGasUsed": "0x79e0",
      "from": "0x16dd701a8d550951ad2f61808667ee2842ff645a",
      "to": "0x7930a04ac1541256af472f19292de6a18993e6b3",
      "contractAddress": null,
      "daFootprintGasScalar": "0x138",
      "l1BaseFeeScalar": "0x44d",
      "l1BlobBaseFee": "0x3d2c1cf",
      "l1BlobBaseFeeScalar": "0xa118b",
      "l1Fee": "0x16b1a6bb9",
      "l1GasPrice": "0x3ee9444d",
      "l1GasUsed": "0x640"
    }
  ],
  "libraries": [],
  "pending": [],
  "returns": {},
  "timestamp": 1768716392991,
  "chain": 84532,
  "commit": null
}