{
  "transactions": [
    {
      "hash": "0x346d9de7f40b2eb91c13b2c411fb4862594f42d4b180f459449eaecdb1867bf7",
      "transactionType": "CALL",
      "contractName": null,
      "contractAddress": "0x463be1029c6979c6612eb00e56fad189615e67f5",
      "function": "setPaymasterAllowed(address,bool)",
      "arguments": [
        "0x07199819E9ed7D1acB10AABDFB3B0CF933E9A167",
        "true"
      ],
      "transaction": {
        "from": "0x16dd701a8d550951ad2f61808667ee2842ff645a",
        "to": "0x463be1029c6979c6612eb00e56fad189615e67f5",
        "gas": "0x10b1a",
        "value": "0x0",
        "input": "0xb12faec000000000000000000000000007199819e9ed7d1acb10aabdfb3b0cf933e9a1670000000000000000000000000000000000000000000000000000000000000001",
        "nonce": "0x43",
        "chainId": "0x14a34"
      },
      "additionalContracts": [],
      "isFixedGasLimit": false
    },
    {
      "hash": "0x185ab459ebb433da918d6c4565ea7d5a7cfc9ca1f8b74fad97faf9bd078e5ba7",
      "transactionType": "CALL",
      "contractName": null,
      "contractAddress": "0x463be1029c6979c6612eb00e56fad189615e67f5",
      "function": "setTokenAllowed(address,bool)",
      "arguments": [
        "0x036CbD53842c5426634e7929541eC2318f3dCF7e",
        "true"
      ],
      "transaction": {
        "from": "0x16dd701a8d550951ad2f61808667ee2842ff645a",
        "to": "0x463be1029c6979c6612eb00e56fad189615e67f5",
        "gas": "0x90a9",
        "value": "0x0",
        "input": "0x15f69012000000000000000000000000036cbd53842c5426634e7929541ec2318f3dcf7e0000000000000000000000000000000000000000000000000000000000000001",
        "nonce": "0x44",
        "chainId": "0x14a34"
      },
      "additionalContracts": [],
      "isFixedGasLimit": false
    },
    {
      "hash": "0x8a4e7e5e341e2495aaf37892783dbe5d8a3dc75f0bfda23ce9fdc3ffaa3e22c4",
      "transactionType": "CALL",
      "contractName": null,
      "contractAddress": "0x07199819e9ed7d1acb10aabdfb3b0cf933e9a167",
      "function": "setFeeTokenConfig(address,bool,uint8,uint256)",
      "arguments": [
        "0x036CbD53842c5426634e7929541eC2318f3dCF7e",
        "true",
        "6",
        "1000000"
      ],
      "transaction": {
        "from": "0x16dd701a8d550951ad2f61808667ee2842ff645a",
        "to": "0x07199819e9ed7d1acb10aabdfb3b0cf933e9a167",
        "gas": "0x1f7ec",
        "value": "0x0",
        "input": "0xa2c174e1000000000000000000000000036cbd53842c5426634e7929541ec2318f3dcf7e0000000000000000000000000000000000000000000000000000000000000001000000000000000000000000000000000000000000000000000000000000000600000000000000000000000000000000000000000000000000000000000f4240",
        "nonce": "0x45",
        "chainId": "0x14a34"
      },
      "additionalContracts": [],
      "isFixedGasLimit": false
    }
  ],
  "receipts": [
    {
      "status": "0x1",
      "cumulativeGasUsed": "0x425e2",
      "logs": [],
      "logsBloom": "0x00000000000000000000000000000000000000000000000000000000000000000000000000000000000000000000000000000000000000000000000000000000000000000000000000000000000000000000000000000000000000000000000000000000000000000000000000000000000000000000000000000000000000000000000000000000000000000000000000000000000000000000000000000000000000000000000000000000000000000000000000000000000000000000000000000000000000000000000000000000000000000000000000000000000000000000000000000000000000000000000000000000000000000000000000000000",
      "type": "0x2",
      "transactionHash": "0x346d9de7f40b2eb91c13b2c411fb4862594f42d4b180f459449eaecdb1867bf7",
      "transactionIndex": "0x5",
      "blockHash": "0x400122ec9c3dbef77e49418418a5a43d41a71c4dc441d73beb531c707d83d076",
      "blockNumber": "0x2285b85",
      "gasUsed": "0xb6a3",
      "effectiveGasPrice": "0x124f80",
      "blobGasUsed": "0x79e0",
      "from": "0x16dd701a8d550951ad2f61808667ee2842ff645a",
      "to": "0x463be1029c6979c6612eb00e56fad189615e67f5",
      "contractAddress": null,
      "daFootprintGasScalar": "0x138",
      "l1BaseFeeScalar": "0x44d",
      "l1BlobBaseFee": "0x88c",
      "l1BlobBaseFeeScalar": "0xa118b",
      "l1Fee": "0x36a35",
      "l1GasPrice": "0xb01d",
      "l1GasUsed": "0x640"
    },
    {
      "status": "0x1",
      "cumulativeGasUsed": "0x670d2",
      "logs": [],
      "logsBloom": "0x00000000000000000000000000000000000000000000000000000000000000000000000000000000000000000000000000000000000000000000000000000000000000000000000000000000000000000000000000000000000000000000000000000000000000000000000000000000000000000000000000000000000000000000000000000000000000000000000000000000000000000000000000000000000000000000000000000000000000000000000000000000000000000000000000000000000000000000000000000000000000000000000000000000000000000000000000000000000000000000000000000000000000000000000000000000",
      "type": "0x2",
      "transactionHash": "0x185ab459ebb433da918d6c4565ea7d5a7cfc9ca1f8b74fad97faf9bd078e5ba7",
      "transactionIndex": "0x9",
      "blockHash": "0x400122ec9c3dbef77e49418418a5a43d41a71c4dc441d73beb531c707d83d076",
      "blockNumber": "0x2285b85",
      "gasUsed": "0x68bc",
      "effectiveGasPrice": "0x124f80",
      "blobGasUsed": "0x79e0",
      "from": "0x16dd701a8d550951ad2f61808667ee2842ff645a",
      "to": "0x463be1029c6979c6612eb00e56fad189615e67f5",
      "contractAddress": null,
      "daFootprintGasScalar": "0x138",
      "l1BaseFeeScalar": "0x44d",
      "l1BlobBaseFee": "0x88c",
      "l1BlobBaseFeeScalar": "0xa118b",
      "l1Fee": "0x36a35",
      "l1GasPrice": "0xb01d",
      "l1GasUsed": "0x640"
    },
    {
      "status": "0x1",
      "cumulativeGasUsed": "0x98bb6",
      "logs": [
        {
          "address": "0x07199819e9ed7d1acb10aabdfb3b0cf933e9a167",
          "topics": [
            "0x9f9f346844d910b1cadde0ebde2eeee0e6c66646f1e62127ef976c4ea3bf46d7",
            "0x000000000000000000000000036cbd53842c5426634e7929541ec2318f3dcf7e"
          ],
          "data": "0x0000000000000000000000000000000000000000000000000000000000000001000000000000000000000000000000000000000000000000000000000000000600000000000000000000000000000000000000000000000000000000000f4240",
          "blockHash": "0x400122ec9c3dbef77e49418418a5a43d41a71c4dc441d73beb531c707d83d076",
          "blockNumber": "0x2285b85",
          "blockTimestamp": "0x696415ea",
          "transactionHash": "0x8a4e7e5e341e2495aaf37892783dbe5d8a3dc75f0bfda23ce9fdc3ffaa3e22c4",
          "transactionIndex": "0xb",
          "logIndex": "0x8",
          "removed": false
        }
      ],
      "logsBloom": "0x00000000000000000000000000002000000000000000000000000000000000000000000000000000000000000000000000000000000000000000000000000000000000000000000000000000000000000000000000000000000000000000000000000000000000000000000000000000000000000000000000000000000040000000000040000000000000000000000000000000000000000000010000000000000020000000000000000000000000000000000000000000100000000000000001000000000000000000000000000000000000004000000000000000000000000000000000000000000000000040000000000000000000000000000000000000",
      "type": "0x2",
      "transactionHash": "0x8a4e7e5e341e2495aaf37892783dbe5d8a3dc75f0bfda23ce9fdc3ffaa3e22c4",
      "transactionIndex": "0xb",
      "blockHash": "0x400122ec9c3dbef77e49418418a5a43d41a71c4dc441d73beb531c707d83d076",
      "blockNumber": "0x2285b85",
      "gasUsed": "0x16cd5",
      "effectiveGasPrice": "0x124f80",
      "blobGasUsed": "0x79e0",
      "from": "0x16dd701a8d550951ad2f61808667ee2842ff645a",
      "to": "0x07199819e9ed7d1acb10aabdfb3b0cf933e9a167",
      "contractAddress": null,
      "daFootprintGasScalar": "0x138",
      "l1BaseFeeScalar": "0x44d",
      "l1BlobBaseFee": "0x88c",
      "l1BlobBaseFeeScalar": "0xa118b",
      "l1Fee": "0x36a35",
      "l1GasPrice": "0xb01d",
      "l1GasUsed": "0x640"
    }
  ],
  "libraries": [],
  "pending": [],
  "returns": {},
  "timestamp": 1768166888605,
  "chain": 84532,
  "commit": null
}