{
  "transactions": [
    {
      "hash": "0x0738fced30448e00e65f2353f3fc0d25bc648d961ae3816e2cb6eba522a760fc",
      "transactionType": "CALL",
      "contractName": null,
      "contractAddress": "0x0d65e8e31dc33f6cf4a176a5b0e3ed4044c561eb",
      "function": "setTokenAllowed(address,bool)",
      "arguments": [
        "0x036CbD53842c5426634e7929541eC2318f3dCF7e",
        "true"
      ],
      "transaction": {
        "from": "0x16dd701a8d550951ad2f61808667ee2842ff645a",
        "to": "0x0d65e8e31dc33f6cf4a176a5b0e3ed4044c561eb",
        "gas": "0x966a",
        "value": "0x0",
        "input": "0x15f69012000000000000000000000000036cbd53842c5426634e7929541ec2318f3dcf7e0000000000000000000000000000000000000000000000000000000000000001",
        "nonce": "0x62",
        "chainId": "0x14a34"
      },
      "additionalContracts": [],
      "isFixedGasLimit": false
    },
    {
      "hash": "0x1ba5a27d82f84cececfc560eef6993bb82d5bd089db19a6649ffc3b4f94dd2bd",
      "transactionType": "CALL",
      "contractName": null,
      "contractAddress": "0x839cba2032c5a74aaa5f00497707b49abf2a7fd5",
      "function": "setFeeTokenConfig(address,bool,uint8,uint256)",
      "arguments": [
        "0x036CbD53842c5426634e7929541eC2318f3dCF7e",
        "true",
        "6",
        "1000000"
      ],
      "transaction": {
        "from": "0x16dd701a8d550951ad2f61808667ee2842ff645a",
        "to": "0x839cba2032c5a74aaa5f00497707b49abf2a7fd5",
        "gas": "0x1f847",
        "value": "0x0",
        "input": "0xa2c174e1000000000000000000000000036cbd53842c5426634e7929541ec2318f3dcf7e0000000000000000000000000000000000000000000000000000000000000001000000000000000000000000000000000000000000000000000000000000000600000000000000000000000000000000000000000000000000000000000f4240",
        "nonce": "0x63",
        "chainId": "0x14a34"
      },
      "additionalContracts": [],
      "isFixedGasLimit": false
    },
    {
      "hash": "0x1f5c1fa578f45c9a1cf46d9aec25ea61e5215992fa1416eac41ad49b981cb1a7",
      "transactionType": "CALL",
      "contractName": null,
      "contractAddress": "0x0d65e8e31dc33f6cf4a176a5b0e3ed4044c561eb",
      "function": "setPermit2(address)",
      "arguments": [
        "0x000000000022D473030F116dDEE9F6B43aC78BA3"
      ],
      "transaction": {
        "from": "0x16dd701a8d550951ad2f61808667ee2842ff645a",
        "to": "0x0d65e8e31dc33f6cf4a176a5b0e3ed4044c561eb",
        "gas": "0x9492",
        "value": "0x0",
        "input": "0x101ec30a000000000000000000000000000000000022d473030f116ddee9f6b43ac78ba3",
        "nonce": "0x64",
        "chainId": "0x14a34"
      },
      "additionalContracts": [],
      "isFixedGasLimit": false
    },
    {
      "hash": "0xacd23c6c83b377c9135b1b68203282dadc444145c5d9e743bcf4af2d5203411c",
      "transactionType": "CALL",
      "contractName": null,
      "contractAddress": "0x0d65e8e31dc33f6cf4a176a5b0e3ed4044c561eb",
      "function": "setStipendConfig(address,uint256)",
      "arguments": [
        "0xC9cb77CF3a98FE05C361804Cec423e5c9689D825",
        "500000000000000"
      ],
      "transaction": {
        "from": "0x16dd701a8d550951ad2f61808667ee2842ff645a",
        "to": "0x0d65e8e31dc33f6cf4a176a5b0e3ed4044c561eb",
        "gas": "0xb084",
        "value": "0x0",
        "input": "0xf359ca49000000000000000000000000c9cb77cf3a98fe05c361804cec423e5c9689d8250000000000000000000000000000000000000000000000000001c6bf52634000",
        "nonce": "0x65",
        "chainId": "0x14a34"
      },
      "additionalContracts": [],
      "isFixedGasLimit": false
    },
    {
      "hash": "0x07d1477eff18e76fcf5d2caac34e2c578f389ef62e49540de239b1da6007f50f",
      "transactionType": "CALL",
      "contractName": null,
      "contractAddress": "0x839cba2032c5a74aaa5f00497707b49abf2a7fd5",
      "function": "setStipendMaxWei(uint256)",
      "arguments": [
        "500000000000000"
      ],
      "transaction": {
        "from": "0x16dd701a8d550951ad2f61808667ee2842ff645a",
        "to": "0x839cba2032c5a74aaa5f00497707b49abf2a7fd5",
        "gas": "0x11009",
        "value": "0x0",
        "input": "0xd6296bd40000000000000000000000000000000000000000000000000001c6bf52634000",
        "nonce": "0x66",
        "chainId": "0x14a34"
      },
      "additionalContracts": [],
      "isFixedGasLimit": false
    }
  ],
  "receipts": [
    {
      "status": "0x1",
      "cumulativeGasUsed": "0x5bcf60",
      "logs": [],
      "logsBloom": "0x00000000000000000000000000000000000000000000000000000000000000000000000000000000000000000000000000000000000000000000000000000000000000000000000000000000000000000000000000000000000000000000000000000000000000000000000000000000000000000000000000000000000000000000000000000000000000000000000000000000000000000000000000000000000000000000000000000000000000000000000000000000000000000000000000000000000000000000000000000000000000000000000000000000000000000000000000000000000000000000000000000000000000000000000000000000",
      "type": "0x2",
      "transactionHash": "0x0738fced30448e00e65f2353f3fc0d25bc648d961ae3816e2cb6eba522a760fc",
      "transactionIndex": "0x16",
      "blockHash": "0xae1141542a06c957f2441897927ee63d34ab3cdb5470995376161739f9afe502",
      "blockNumber": "0x22db5b1",
      "gasUsed": "0x66d9",
      "effectiveGasPrice": "0x124f80",
      "blobGasUsed": "0x79e0",
      "from": "0x16dd701a8d550951ad2f61808667ee2842ff645a",
      "to": "0x0d65e8e31dc33f6cf4a176a5b0e3ed4044c561eb",
      "contractAddress": null,
      "daFootprintGasScalar": "0x138",
      "l1BaseFeeScalar": "0x44d",
      "l1BlobBaseFee": "0x3ff64ea",
      "l1BlobBaseFeeScalar": "0xa118b",
      "l1Fee": "0x175eb2e89",
      "l1GasPrice": "0x3e8500cb",
      "l1GasUsed": "0x640"
    },
    {
      "status": "0x1",
      "cumulativeGasUsed": "0x5daee1",
      "logs": [
        {
          "address": "0x839cba2032c5a74aaa5f00497707b49abf2a7fd5",
          "topics": [
            "0x9f9f346844d910b1cadde0ebde2eeee0e6c66646f1e62127ef976c4ea3bf46d7",
            "0x000000000000000000000000036cbd53842c5426634e7929541ec2318f3dcf7e"
          ],
          "data": "0x0000000000000000000000000000000000000000000000000000000000000001000000000000000000000000000000000000000000000000000000000000000600000000000000000000000000000000000000000000000000000000000f4240",
          "blockHash": "0xae1141542a06c957f2441897927ee63d34ab3cdb5470995376161739f9afe502",
          "blockNumber": "0x22db5b1",
          "blockTimestamp": "0x696eca42",
          "transactionHash": "0x1ba5a27d82f84cececfc560eef6993bb82d5bd089db19a6649ffc3b4f94dd2bd",
          "transactionIndex": "0x18",
          "logIndex": "0xcc",
          "removed": false
        }
      ],
      "logsBloom": "0x00000000000000000000000000000000000008000000000000000000000000000000000000000000000000000000000000000000000000000000000000000000000000000000000000000000000000000000000000000000000000000000000000000000000000002000000000000000000000000000000000000000000040000000000040000000000000000000000000000000000000000000010000000000000000000000000000000000000000000000000000000000100000000004000000000000000000000000000000000000000000004000000000000000000000000000000000000000000000000040000000000000000000000000000000000000",
      "type": "0x2",
      "transactionHash": "0x1ba5a27d82f84cececfc560eef6993bb82d5bd089db19a6649ffc3b4f94dd2bd",
      "transactionIndex": "0x18",
      "blockHash": "0xae1141542a06c957f2441897927ee63d34ab3cdb5470995376161739f9afe502",
      "blockNumber": "0x22db5b1",
      "gasUsed": "0x16d17",
      "effectiveGasPrice": "0x124f80",
      "blobGasUsed": "0x79e0",
      "from": "0x16dd701a8d550951ad2f61808667ee2842ff645a",
      "to": "0x839cba2032c5a74aaa5f00497707b49abf2a7fd5",
      "contractAddress": null,
      "daFootprintGasScalar": "0x138",
      "l1BaseFeeScalar": "0x44d",
      "l1BlobBaseFee": "0x3ff64ea",
      "l1BlobBaseFeeScalar": "0xa118b",
      "l1Fee": "0x175eb2e89",
      "l1GasPrice": "0x3e8500cb",
      "l1GasUsed": "0x640"
    },
    {
      "status": "0x1",
      "cumulativeGasUsed": "0x5e1a71",
      "logs": [
        {
          "address": "0x0d65e8e31dc33f6cf4a176a5b0e3ed4044c561eb",
          "topics": [
            "0x458609883bfc2c0eb1300d68839f0a6aa0b7a1997aba004773946caf044a06ff",
            "0x000000000000000000000000000000000022d473030f116ddee9f6b43ac78ba3",
            "0x000000000000000000000000000000000022d473030f116ddee9f6b43ac78ba3"
          ],
          "data": "0x",
          "blockHash": "0xae1141542a06c957f2441897927ee63d34ab3cdb5470995376161739f9afe502",
          "blockNumber": "0x22db5b1",
          "blockTimestamp": "0x696eca42",
          "transactionHash": "0x07d1477eff18e76fcf5d2caac34e2c578f389ef62e49540de239b1da6007f50f",
          "transactionIndex": "0x19",
          "logIndex": "0xcd",
          "removed": false
        }
      ],
      "logsBloom": "0x00000000000000000000000000000000200000000000000000000000000000000000000000000000000000000000008000000000800000000000000100000000000000000000000000004000000000000000000800000800000000000000000000000000000000000000000000000000000000000004000000000000000000000000000000000000000000000000000000000000800000000000000000000000000000000000000000000000000000000000000000000000000000000000000000000000000000000000000000000000000000000000000000000000000000000000000000000000000000000000000000000000000000000000000000000000",
      "type": "0x2",
      "transactionHash": "0x07d1477eff18e76fcf5d2caac34e2c578f389ef62e49540de239b1da6007f50f",
      "transactionIndex": "0x19",
      "blockHash": "0xae1141542a06c957f2441897927ee63d34ab3cdb5470995376161739f9afe502",
      "blockNumber": "0x22db5b1",
      "gasUsed": "0x6b90",
      "effectiveGasPrice": "0x124f80",
      "blobGasUsed": "0x79e0",
      "from": "0x16dd701a8d550951ad2f61808667ee2842ff645a",
      "to": "0x0d65e8e31dc33f6cf4a176a5b0e3ed4044c561eb",
      "contractAddress": null,
      "daFootprintGasScalar": "0x138",
      "l1BaseFeeScalar": "0x44d",
      "l1BlobBaseFee": "0x3ff64ea",
      "l1BlobBaseFeeScalar": "0xa118b",
      "l1Fee": "0x175eb2e89",
      "l1GasPrice": "0x3e8500cb",
      "l1GasUsed": "0x640"
    },
    {
      "status": "0x1",
      "cumulativeGasUsed": "0x5e9323",
      "logs": [
        {
          "address": "0x0d65e8e31dc33f6cf4a176a5b0e3ed4044c561eb",
          "topics": [
            "0x66d1743eb0623f0706f2f3ac8c976056b13ce34892bf702aa945975eff5b6e31",
            "0x000000000000000000000000c9cb77cf3a98fe05c361804cec423e5c9689d825",
            "0x000000000000000000000000c9cb77cf3a98fe05c361804cec423e5c9689d825"
          ],
          "data": "0x0000000000000000000000000000000000000000000000000001c6bf526340000000000000000000000000000000000000000000000000000001c6bf52634000",
          "blockHash": "0x15bd4f7ccb174c51c2cfa3424bea00f5c07992e9cf9e61b2ce479ee435d6ce90",
          "blockNumber": "0x22db5b1",
          "blockTimestamp": "0x696eca42",
          "transactionHash": "0xacd23c6c83b377c9135b1b68203282dadc444145c5d9e743bcf4af2d5203411c",
          "transactionIndex": "0x1a",
          "logIndex": "0xce",
          "removed": false
        }
      ],
      "logsBloom": "0x00000000000000000000000000000000200000000000000000000000000000000000000000000000000000000000000000000000000000000000000000000000000000000000000000000000000000000000000000000000000000000000000000000000000000000000000000000000000000000004000000000000000000000000000000000000000000000000000000000000800000000000000000000000000000000000800000000100000000001000000000000000000000000000000000200000000000000000000000000000000000000000000000000000000000000002000000000000000000000000000000000000000000000000000000000080",
      "type": "0x2",
      "transactionHash": "0xacd23c6c83b377c9135b1b68203282dadc444145c5d9e743bcf4af2d5203411c",
      "transactionIndex": "0x1a",
      "blockHash": "0x15bd4f7ccb174c51c2cfa3424bea00f5c07992e9cf9e61b2ce479ee435d6ce90",
      "blockNumber": "0x22db5b1",
      "gasUsed": "0x78b2",
      "effectiveGasPrice": "0x124f80",
      "blobGasUsed": "0x79e0",
      "from": "0x16dd701a8d550951ad2f61808667ee2842ff645a",
      "to": "0x0d65e8e31dc33f6cf4a176a5b0e3ed4044c561eb",
      "contractAddress": null,
      "daFootprintGasScalar": "0x138",
      "l1BaseFeeScalar": "0x44d",
      "l1BlobBaseFee": "0x3ff64ea",
      "l1BlobBaseFeeScalar": "0xa118b",
      "l1Fee": "0x175eb2e89",
      "l1GasPrice": "0x3e8500cb",
      "l1GasUsed": "0x640"
    },
    {
      "status": "0x1",
      "cumulativeGasUsed": "0x5f4d25",
      "logs": [
        {
          "address": "0x839cba2032c5a74aaa5f00497707b49abf2a7fd5",
          "topics": [
            "0x1233c8089b3809d6729e60d9aaf8ef4d324bfea2135dd985ea9242a599f1770e"
          ],
          "data": "0x00000000000000000000000000000000000000000000000000000000000000000000000000000000000000000000000000000000000000000001c6bf52634000",
          "blockHash": "0xae1141542a06c957f2441897927ee63d34ab3cdb5470995376161739f9afe502",
          "blockNumber": "0x22db5b1",
          "blockTimestamp": "0x696eca42",
          "transactionHash": "0x1f5c1fa578f45c9a1cf46d9aec25ea61e5215992fa1416eac41ad49b981cb1a7",
          "transactionIndex": "0x1b",
          "logIndex": "0xcf",
          "removed": false
        }
      ],
      "logsBloom": "0x00000000000000000000000000000000000008000000000000000000000000000000000000000000000000000000000000000000000000000000000000000000000000000000000000000000000000000000000000000000000000000000000000000000000000002000000000000000000000000000000000000000000000000000000000000000000000000000000000000000000000000000000000000000000000000000000000000000000000000000000000000000000000000004000000000000000000000000000000000000000000000000000000000002000000000000000000000000000000000000004000000000000000000000000000000004",
      "type": "0x2",
      "transactionHash": "0x1f5c1fa578f45c9a1cf46d9aec25ea61e5215992fa1416eac41ad49b981cb1a7",
      "transactionIndex": "0x1b",
      "blockHash": "0xae1141542a06c957f2441897927ee63d34ab3cdb5470995376161739f9afe502",
      "blockNumber": "0x22db5b1",
      "gasUsed": "0xba02",
      "effectiveGasPrice": "0x124f80",
      "blobGasUsed": "0x79e0",
      "from": "0x16dd701a8d550951ad2f61808667ee2842ff645a",
      "to": "0x839cba2032c5a74aaa5f00497707b49abf2a7fd5",
      "contractAddress": null,
      "daFootprintGasScalar": "0x138",
      "l1BaseFeeScalar": "0x44d",
      "l1BlobBaseFee": "0x3ff64ea",
      "l1BlobBaseFeeScalar": "0xa118b",
      "l1Fee": "0x175eb2e89",
      "l1GasPrice": "0x3e8500cb",
      "l1GasUsed": "0x640"
    }
  ],
  "libraries": [],
  "pending": [],
  "returns": {},
  "timestamp": 1768868418878,
  "chain": 84532,
  "commit": null
}