{
  "transactions": [
    {
      "hash": "0xba7d020faaea7813aa3efa63aa9f8e4e5016ef862d54c26bc7fea798a590dffe",
      "transactionType": "CALL",
      "contractName": null,
      "contractAddress": "0x97c00a13876d5fccdf2d87b35bcaac98bb03a07f",
      "function": "setTokenAllowed(address,bool)",
      "arguments": [
        "0x036CbD53842c5426634e7929541eC2318f3dCF7e",
        "true"
      ],
      "transaction": {
        "from": "0x16dd701a8d550951ad2f61808667ee2842ff645a",
        "to": "0x97c00a13876d5fccdf2d87b35bcaac98bb03a07f",
        "gas": "0x9626",
        "value": "0x0",
        "input": "0x15f69012000000000000000000000000036cbd53842c5426634e7929541ec2318f3dcf7e0000000000000000000000000000000000000000000000000000000000000001",
        "nonce": "0x4f",
        "chainId": "0x14a34"
      },
      "additionalContracts": [],
      "isFixedGasLimit": false
    },
    {
      "hash": "0x68ab96ac2eeb1002cf25ba845e00286a62fed36b70ea66bdf4540bd4736da118",
      "transactionType": "CALL",
      "contractName": null,
      "contractAddress": "0x128c7fa5bdf093aaa6f70fe8a0c5fbac6b8771e0",
      "function": "setFeeTokenConfig(address,bool,uint8,uint256)",
      "arguments": [
        "0x036CbD53842c5426634e7929541eC2318f3dCF7e",
        "true",
        "6",
        "1000000"
      ],
      "transaction": {
        "from": "0x16dd701a8d550951ad2f61808667ee2842ff645a",
        "to": "0x128c7fa5bdf093aaa6f70fe8a0c5fbac6b8771e0",
        "gas": "0xc081",
        "value": "0x0",
        "input": "0xa2c174e1000000000000000000000000036cbd53842c5426634e7929541ec2318f3dcf7e0000000000000000000000000000000000000000000000000000000000000001000000000000000000000000000000000000000000000000000000000000000600000000000000000000000000000000000000000000000000000000000f4240",
        "nonce": "0x50",
        "chainId": "0x14a34"
      },
      "additionalContracts": [],
      "isFixedGasLimit": false
    }
  ],
  "receipts": [
    {
      "status": "0x1",
      "cumulativeGasUsed": "0x2e388",
      "logs": [],
      "logsBloom": "0x00000000000000000000000000000000000000000000000000000000000000000000000000000000000000000000000000000000000000000000000000000000000000000000000000000000000000000000000000000000000000000000000000000000000000000000000000000000000000000000000000000000000000000000000000000000000000000000000000000000000000000000000000000000000000000000000000000000000000000000000000000000000000000000000000000000000000000000000000000000000000000000000000000000000000000000000000000000000000000000000000000000000000000000000000000000",
      "type": "0x2",
      "transactionHash": "0xba7d020faaea7813aa3efa63aa9f8e4e5016ef862d54c26bc7fea798a590dffe",
      "transactionIndex": "0x2",
      "blockHash": "0xf2cfae0d1a9f924fed030d12b3c6695065967b40f7b8194b3a1c42df33722717",
      "blockNumber": "0x22c97ab",
      "gasUsed": "0x66ab",
      "effectiveGasPrice": "0x124f80",
      "blobGasUsed": "0x79e0",
      "from": "0x16dd701a8d550951ad2f61808667ee2842ff645a",
      "to": "0x97c00a13876d5fccdf2d87b35bcaac98bb03a07f",
      "contractAddress": null,
      "daFootprintGasScalar": "0x138",
      "l1BaseFeeScalar": "0x44d",
      "l1BlobBaseFee": "0x38fa026",
      "l1BlobBaseFeeScalar": "0xa118b",
      "l1Fee": "0x15eacf168",
      "l1GasPrice": "0x41add3c2",
      "l1GasUsed": "0x640"
    },
    {
      "status": "0x1",
      "cumulativeGasUsed": "0x36729",
      "logs": [
        {
          "address": "0x128c7fa5bdf093aaa6f70fe8a0c5fbac6b8771e0",
          "topics": [
            "0x9f9f346844d910b1cadde0ebde2eeee0e6c66646f1e62127ef976c4ea3bf46d7",
            "0x000000000000000000000000036cbd53842c5426634e7929541ec2318f3dcf7e"
          ],
          "data": "0x0000000000000000000000000000000000000000000000000000000000000001000000000000000000000000000000000000000000000000000000000000000600000000000000000000000000000000000000000000000000000000000f4240",
          "blockHash": "0xd20090a1bc196032cb6c434649ec87de64e4ae5227bb72cb6f8992c7dc159986",
          "blockNumber": "0x22c97ab",
          "blockTimestamp": "0x696c8e36",
          "transactionHash": "0x68ab96ac2eeb1002cf25ba845e00286a62fed36b70ea66bdf4540bd4736da118",
          "transactionIndex": "0x3",
          "logIndex": "0x5",
          "removed": false
        }
      ],
      "logsBloom": "0x00000000000000000000000000000000000000000000000000000000000000000000000000000000000000000000000000000000000000000000000000000000000000000000000000000000000000000000000000000000000000000000000000000000000000000000000000000000000000000000000000000000000040000000000040000000000000000000000000000000000000000000010000000000000000000000000000000000000000000000000000000000100020000000000000000000000000000020000000000000000000004000000000000000000000000000000000000000000000000040000000000000000000800000000000000000",
      "type": "0x2",
      "transactionHash": "0x68ab96ac2eeb1002cf25ba845e00286a62fed36b70ea66bdf4540bd4736da118",
      "transactionIndex": "0x3",
      "blockHash": "0xd20090a1bc196032cb6c434649ec87de64e4ae5227bb72cb6f8992c7dc159986",
      "blockNumber": "0x22c97ab",
      "gasUsed": "0x83a1",
      "effectiveGasPrice": "0x124f80",
      "blobGasUsed": "0x79e0",
      "from": "0x16dd701a8d550951ad2f61808667ee2842ff645a",
      "to": "0x128c7fa5bdf093aaa6f70fe8a0c5fbac6b8771e0",
      "contractAddress": null,
      "daFootprintGasScalar": "0x138",
      "l1BaseFeeScalar": "0x44d",
      "l1BlobBaseFee": "0x38fa026",
      "l1BlobBaseFeeScalar": "0xa118b",
      "l1Fee": "0x15eacf168",
      "l1GasPrice": "0x41add3c2",
      "l1GasUsed": "0x640"
    }
  ],
  "libraries": [],
  "pending": [],
  "returns": {},
  "timestamp": 1768721973717,
  "chain": 84532,
  "commit": null
}