{
  "transactions": [
    {
      "hash": "0x0cf1135e7b99f6f4fbede22957f4c37154f8bfcc9ae0841ac7a7a6314cefc2cb",
      "transactionType": "CALL",
      "contractName": null,
      "contractAddress": "0x97c00a13876d5fccdf2d87b35bcaac98bb03a07f",
      "function": "setTokenAllowed(address,bool)",
      "arguments": [
        "0x036CbD53842c5426634e7929541eC2318f3dCF7e",
        "true"
      ],
      "transaction": {
        "from": "0x16dd701a8d550951ad2f61808667ee2842ff645a",
        "to": "0x97c00a13876d5fccdf2d87b35bcaac98bb03a07f",
        "gas": "0x9626",
        "value": "0x0",
        "input": "0x15f69012000000000000000000000000036cbd53842c5426634e7929541ec2318f3dcf7e0000000000000000000000000000000000000000000000000000000000000001",
        "nonce": "0x4b",
        "chainId": "0x14a34"
      },
      "additionalContracts": [],
      "isFixedGasLimit": false
    },
    {
      "hash": "0x6821ccf366a75c10f8b0cec847e130c8051bda9fe849c3bf583e28348fb42c5e",
      "transactionType": "CALL",
      "contractName": null,
      "contractAddress": "0x128c7fa5bdf093aaa6f70fe8a0c5fbac6b8771e0",
      "function": "setFeeTokenConfig(address,bool,uint8,uint256)",
      "arguments": [
        "0x036CbD53842c5426634e7929541eC2318f3dCF7e",
        "true",
        "6",
        "1000000"
      ],
      "transaction": {
        "from": "0x16dd701a8d550951ad2f61808667ee2842ff645a",
        "to": "0x128c7fa5bdf093aaa6f70fe8a0c5fbac6b8771e0",
        "gas": "0x1f7ec",
        "value": "0x0",
        "input": "0xa2c174e1000000000000000000000000036cbd53842c5426634e7929541ec2318f3dcf7e0000000000000000000000000000000000000000000000000000000000000001000000000000000000000000000000000000000000000000000000000000000600000000000000000000000000000000000000000000000000000000000f4240",
        "nonce": "0x4c",
        "chainId": "0x14a34"
      },
      "additionalContracts": [],
      "isFixedGasLimit": false
    }
  ],
  "receipts": [
    {
      "status": "0x1",
      "cumulativeGasUsed": "0x274702",
      "logs": [],
      "logsBloom": "0x00000000000000000000000000000000000000000000000000000000000000000000000000000000000000000000000000000000000000000000000000000000000000000000000000000000000000000000000000000000000000000000000000000000000000000000000000000000000000000000000000000000000000000000000000000000000000000000000000000000000000000000000000000000000000000000000000000000000000000000000000000000000000000000000000000000000000000000000000000000000000000000000000000000000000000000000000000000000000000000000000000000000000000000000000000000",
      "type": "0x2",
      "transactionHash": "0x0cf1135e7b99f6f4fbede22957f4c37154f8bfcc9ae0841ac7a7a6314cefc2cb",
      "transactionIndex": "0xd",
      "blockHash": "0xef568499ce059a7b1d2b5a208d092ea3843c20a2058d82592529ab0129a2b91e",
      "blockNumber": "0x22c919f",
      "gasUsed": "0x66ab",
      "effectiveGasPrice": "0x124f80",
      "blobGasUsed": "0x79e0",
      "from": "0x16dd701a8d550951ad2f61808667ee2842ff645a",
      "to": "0x97c00a13876d5fccdf2d87b35bcaac98bb03a07f",
      "contractAddress": null,
      "daFootprintGasScalar": "0x138",
      "l1BaseFeeScalar": "0x44d",
      "l1BlobBaseFee": "0x3cb75d7",
      "l1BlobBaseFeeScalar": "0xa118b",
      "l1Fee": "0x161a14a72",
      "l1GasPrice": "0x3a99ebea",
      "l1GasUsed": "0x640"
    },
    {
      "status": "0x1",
      "cumulativeGasUsed": "0x2ca69f",
      "logs": [
        {
          "address": "0x128c7fa5bdf093aaa6f70fe8a0c5fbac6b8771e0",
          "topics": [
            "0x9f9f346844d910b1cadde0ebde2eeee0e6c66646f1e62127ef976c4ea3bf46d7",
            "0x000000000000000000000000036cbd53842c5426634e7929541ec2318f3dcf7e"
          ],
          "data": "0x0000000000000000000000000000000000000000000000000000000000000001000000000000000000000000000000000000000000000000000000000000000600000000000000000000000000000000000000000000000000000000000f4240",
          "blockHash": "0xef568499ce059a7b1d2b5a208d092ea3843c20a2058d82592529ab0129a2b91e",
          "blockNumber": "0x22c919f",
          "blockTimestamp": "0x696c821e",
          "transactionHash": "0x6821ccf366a75c10f8b0cec847e130c8051bda9fe849c3bf583e28348fb42c5e",
          "transactionIndex": "0xf",
          "logIndex": "0x19",
          "removed": false
        }
      ],
      "logsBloom": "0x00000000000000000000000000000000000000000000000000000000000000000000000000000000000000000000000000000000000000000000000000000000000000000000000000000000000000000000000000000000000000000000000000000000000000000000000000000000000000000000000000000000000040000000000040000000000000000000000000000000000000000000010000000000000000000000000000000000000000000000000000000000100020000000000000000000000000000020000000000000000000004000000000000000000000000000000000000000000000000040000000000000000000800000000000000000",
      "type": "0x2",
      "transactionHash": "0x6821ccf366a75c10f8b0cec847e130c8051bda9fe849c3bf583e28348fb42c5e",
      "transactionIndex": "0xf",
      "blockHash": "0xef568499ce059a7b1d2b5a208d092ea3843c20a2058d82592529ab0129a2b91e",
      "blockNumber": "0x22c919f",
      "gasUsed": "0x16cd5",
      "effectiveGasPrice": "0x124f80",
      "blobGasUsed": "0x79e0",
      "from": "0x16dd701a8d550951ad2f61808667ee2842ff645a",
      "to": "0x128c7fa5bdf093aaa6f70fe8a0c5fbac6b8771e0",
      "contractAddress": null,
      "daFootprintGasScalar": "0x138",
      "l1BaseFeeScalar": "0x44d",
      "l1BlobBaseFee": "0x3cb75d7",
      "l1BlobBaseFeeScalar": "0xa118b",
      "l1Fee": "0x161a14a72",
      "l1GasPrice": "0x3a99ebea",
      "l1GasUsed": "0x640"
    }
  ],
  "libraries": [],
  "pending": [],
  "returns": {},
  "timestamp": 1768718878656,
  "chain": 84532,
  "commit": null
}