{
  "transactions": [
    {
      "hash": "0xa3f7109422519a8140bb32be008530ac69c4db7a5e097134e23fb1ec54a0fb25",
      "transactionType": "CALL",
      "contractName": null,
      "contractAddress": "0x97c00a13876d5fccdf2d87b35bcaac98bb03a07f",
      "function": "setTokenAllowed(address,bool)",
      "arguments": [
        "0x036CbD53842c5426634e7929541eC2318f3dCF7e",
        "true"
      ],
      "transaction": {
        "from": "0x16dd701a8d550951ad2f61808667ee2842ff645a",
        "to": "0x97c00a13876d5fccdf2d87b35bcaac98bb03a07f",
        "gas": "0x9626",
        "value": "0x0",
        "input": "0x15f69012000000000000000000000000036cbd53842c5426634e7929541ec2318f3dcf7e0000000000000000000000000000000000000000000000000000000000000001",
        "nonce": "0x53",
        "chainId": "0x14a34"
      },
      "additionalContracts": [],
      "isFixedGasLimit": false
    },
    {
      "hash": "0xd9bf24b470740afd525da2c280b3b369a3d4f881cdde086c09158095a38e6b34",
      "transactionType": "CALL",
      "contractName": null,
      "contractAddress": "0xa3bcb92ec164e2f6cec6acdeb2cdebb4f688fbd8",
      "function": "setFeeTokenConfig(address,bool,uint8,uint256)",
      "arguments": [
        "0x036CbD53842c5426634e7929541eC2318f3dCF7e",
        "true",
        "6",
        "1000000"
      ],
      "transaction": {
        "from": "0x16dd701a8d550951ad2f61808667ee2842ff645a",
        "to": "0xa3bcb92ec164e2f6cec6acdeb2cdebb4f688fbd8",
        "gas": "0x215b0",
        "value": "0x0",
        "input": "0xa2c174e1000000000000000000000000036cbd53842c5426634e7929541ec2318f3dcf7e0000000000000000000000000000000000000000000000000000000000000001000000000000000000000000000000000000000000000000000000000000000600000000000000000000000000000000000000000000000000000000000f4240",
        "nonce": "0x54",
        "chainId": "0x14a34"
      },
      "additionalContracts": [],
      "isFixedGasLimit": false
    }
  ],
  "receipts": [
    {
      "status": "0x1",
      "cumulativeGasUsed": "0x33108a",
      "logs": [],
      "logsBloom": "0x00000000000000000000000000000000000000000000000000000000000000000000000000000000000000000000000000000000000000000000000000000000000000000000000000000000000000000000000000000000000000000000000000000000000000000000000000000000000000000000000000000000000000000000000000000000000000000000000000000000000000000000000000000000000000000000000000000000000000000000000000000000000000000000000000000000000000000000000000000000000000000000000000000000000000000000000000000000000000000000000000000000000000000000000000000000",
      "type": "0x2",
      "transactionHash": "0xa3f7109422519a8140bb32be008530ac69c4db7a5e097134e23fb1ec54a0fb25",
      "transactionIndex": "0x15",
      "blockHash": "0xcb2ed07fd9cc5df841c75becf864d2b7cf5d6debf99ac8e32b5da5d85def0969",
      "blockNumber": "0x22c97df",
      "gasUsed": "0x66ab",
      "effectiveGasPrice": "0x124f80",
      "blobGasUsed": "0x79e0",
      "from": "0x16dd701a8d550951ad2f61808667ee2842ff645a",
      "to": "0x97c00a13876d5fccdf2d87b35bcaac98bb03a07f",
      "contractAddress": null,
      "daFootprintGasScalar": "0x138",
      "l1BaseFeeScalar": "0x44d",
      "l1BlobBaseFee": "0x38c391f",
      "l1BlobBaseFeeScalar": "0xa118b",
      "l1Fee": "0x154d4d877",
      "l1GasPrice": "0x3c96b38e",
      "l1GasUsed": "0x640"
    },
    {
      "status": "0x1",
      "cumulativeGasUsed": "0x3746f0",
      "logs": [
        {
          "address": "0xa3bcb92ec164e2f6cec6acdeb2cdebb4f688fbd8",
          "topics": [
            "0x9f9f346844d910b1cadde0ebde2eeee0e6c66646f1e62127ef976c4ea3bf46d7",
            "0x000000000000000000000000036cbd53842c5426634e7929541ec2318f3dcf7e"
          ],
          "data": "0x0000000000000000000000000000000000000000000000000000000000000001000000000000000000000000000000000000000000000000000000000000000600000000000000000000000000000000000000000000000000000000000f4240",
          "blockHash": "0xcb2ed07fd9cc5df841c75becf864d2b7cf5d6debf99ac8e32b5da5d85def0969",
          "blockNumber": "0x22c97df",
          "blockTimestamp": "0x696c8e9e",
          "transactionHash": "0xd9bf24b470740afd525da2c280b3b369a3d4f881cdde086c09158095a38e6b34",
          "transactionIndex": "0x17",
          "logIndex": "0x25",
          "removed": false
        }
      ],
      "logsBloom": "0x00000000000000000000000000000000000000000000000000000000000000000000000000000000000000000000000000000000000000000000000000000000000000000000000000000000000000000000000080200000000000000000000000000000000000000000000000000000000000000000000000000000000040000000000040000000000000000000000000000000000000000000010000000000000000000000000000000000000000000000000000000000100000000000000000000000000000100000000000000000000000004000000000000000000000000000000000000000000000000040000000000000000000000000000000000000",
      "type": "0x2",
      "transactionHash": "0xd9bf24b470740afd525da2c280b3b369a3d4f881cdde086c09158095a38e6b34",
      "transactionIndex": "0x17",
      "blockHash": "0xcb2ed07fd9cc5df841c75becf864d2b7cf5d6debf99ac8e32b5da5d85def0969",
      "blockNumber": "0x22c97df",
      "gasUsed": "0x16ceb",
      "effectiveGasPrice": "0x124f80",
      "blobGasUsed": "0x79e0",
      "from": "0x16dd701a8d550951ad2f61808667ee2842ff645a",
      "to": "0xa3bcb92ec164e2f6cec6acdeb2cdebb4f688fbd8",
      "contractAddress": null,
      "daFootprintGasScalar": "0x138",
      "l1BaseFeeScalar": "0x44d",
      "l1BlobBaseFee": "0x38c391f",
      "l1BlobBaseFeeScalar": "0xa118b",
      "l1Fee": "0x154d4d877",
      "l1GasPrice": "0x3c96b38e",
      "l1GasUsed": "0x640"
    }
  ],
  "libraries": [],
  "pending": [],
  "returns": {},
  "timestamp": 1768722077761,
  "chain": 84532,
  "commit": null
}