{
  "transactions": [
    {
      "hash": "0x1828791e143345eec38bdbdd5f3fc1c747edfc625fe5d37cd4e9fd9d27651305",
      "transactionType": "CALL",
      "contractName": null,
      "contractAddress": "0x692c59e6f45a4a2336a7fdf79fba182f713fa9ff",
      "function": "setTokenAllowed(address,bool)",
      "arguments": [
        "0x036CbD53842c5426634e7929541eC2318f3dCF7e",
        "true"
      ],
      "transaction": {
        "from": "0x16dd701a8d550951ad2f61808667ee2842ff645a",
        "to": "0x692c59e6f45a4a2336a7fdf79fba182f713fa9ff",
        "gas": "0xf96d",
        "value": "0x0",
        "input": "0x15f69012000000000000000000000000036cbd53842c5426634e7929541ec2318f3dcf7e0000000000000000000000000000000000000000000000000000000000000001",
        "nonce": "0x86",
        "chainId": "0x14a34"
      },
      "additionalContracts": [],
      "isFixedGasLimit": false
    },
    {
      "hash": "0x9a48bebcbfab2fafe4a8d03b62a0c582036b68e781328775bc59214a815490bb",
      "transactionType": "CALL",
      "contractName": null,
      "contractAddress": "0x899be185a2a7befa532cb838dabcf45d49c06b0b",
      "function": "setFeeTokenConfig(address,bool,uint8,uint256)",
      "arguments": [
        "0x036CbD53842c5426634e7929541eC2318f3dCF7e",
        "true",
        "6",
        "1000000"
      ],
      "transaction": {
        "from": "0x16dd701a8d550951ad2f61808667ee2842ff645a",
        "to": "0x899be185a2a7befa532cb838dabcf45d49c06b0b",
        "gas": "0x1f843",
        "value": "0x0",
        "input": "0xa2c174e1000000000000000000000000036cbd53842c5426634e7929541ec2318f3dcf7e0000000000000000000000000000000000000000000000000000000000000001000000000000000000000000000000000000000000000000000000000000000600000000000000000000000000000000000000000000000000000000000f4240",
        "nonce": "0x87",
        "chainId": "0x14a34"
      },
      "additionalContracts": [],
      "isFixedGasLimit": false
    },
    {
      "hash": "0x7e0a3665346f4f64714b85fd9b7f1b7fbab16b7c3fe8eaae03066cdc66d03c01",
      "transactionType": "CALL",
      "contractName": null,
      "contractAddress": "0x692c59e6f45a4a2336a7fdf79fba182f713fa9ff",
      "function": "setPermit2(address)",
      "arguments": [
        "0x000000000022D473030F116dDEE9F6B43aC78BA3"
      ],
      "transaction": {
        "from": "0x16dd701a8d550951ad2f61808667ee2842ff645a",
        "to": "0x692c59e6f45a4a2336a7fdf79fba182f713fa9ff",
        "gas": "0xfff0",
        "value": "0x0",
        "input": "0x101ec30a000000000000000000000000000000000022d473030f116ddee9f6b43ac78ba3",
        "nonce": "0x88",
        "chainId": "0x14a34"
      },
      "additionalContracts": [],
      "isFixedGasLimit": false
    },
    {
      "hash": "0xcbfd53ebf373e6a89a4f47ca35e6fc0a0b493f7b722f4dacce7b56cd4c5a92d4",
      "transactionType": "CALL",
      "contractName": null,
      "contractAddress": "0x692c59e6f45a4a2336a7fdf79fba182f713fa9ff",
      "function": "setStipendConfig(address,uint256)",
      "arguments": [
        "0xC9cb77CF3a98FE05C361804Cec423e5c9689D825",
        "500000000000000"
      ],
      "transaction": {
        "from": "0x16dd701a8d550951ad2f61808667ee2842ff645a",
        "to": "0x692c59e6f45a4a2336a7fdf79fba182f713fa9ff",
        "gas": "0x17daf",
        "value": "0x0",
        "input": "0xf359ca49000000000000000000000000c9cb77cf3a98fe05c361804cec423e5c9689d8250000000000000000000000000000000000000000000000000001c6bf52634000",
        "nonce": "0x89",
        "chainId": "0x14a34"
      },
      "additionalContracts": [],
      "isFixedGasLimit": false
    },
    {
      "hash": "0x0e298a04b50cb6f0356437f6f436bf721fe7db6541165ad823b6e52a9bf96877",
      "transactionType": "CALL",
      "contractName": null,
      "contractAddress": "0x899be185a2a7befa532cb838dabcf45d49c06b0b",
      "function": "setStipendMaxWei(uint256)",
      "arguments": [
        "500000000000000"
      ],
      "transaction": {
        "from": "0x16dd701a8d550951ad2f61808667ee2842ff645a",
        "to": "0x899be185a2a7befa532cb838dabcf45d49c06b0b",
        "gas": "0x11009",
        "value": "0x0",
        "input": "0xd6296bd40000000000000000000000000000000000000000000000000001c6bf52634000",
        "nonce": "0x8a",
        "chainId": "0x14a34"
      },
      "additionalContracts": [],
      "isFixedGasLimit": false
    }
  ],
  "receipts": [
    {
      "status": "0x1",
      "cumulativeGasUsed": "0x607347",
      "logs": [],
      "logsBloom": "0x00000000000000000000000000000000000000000000000000000000000000000000000000000000000000000000000000000000000000000000000000000000000000000000000000000000000000000000000000000000000000000000000000000000000000000000000000000000000000000000000000000000000000000000000000000000000000000000000000000000000000000000000000000000000000000000000000000000000000000000000000000000000000000000000000000000000000000000000000000000000000000000000000000000000000000000000000000000000000000000000000000000000000000000000000000000",
      "type": "0x2",
      "transactionHash": "0x7e0a3665346f4f64714b85fd9b7f1b7fbab16b7c3fe8eaae03066cdc66d03c01",
      "transactionIndex": "0x15",
      "blockHash": "0xd6677ad425fe93e12e99eba8bdf2870b36545104161bff66f75165f30279f9d2",
      "blockNumber": "0x22f0d66",
      "gasUsed": "0xb495",
      "effectiveGasPrice": "0x124f80",
      "blobGasUsed": "0x79e0",
      "from": "0x16dd701a8d550951ad2f61808667ee2842ff645a",
      "to": "0x692c59e6f45a4a2336a7fdf79fba182f713fa9ff",
      "contractAddress": null,
      "daFootprintGasScalar": "0x138",
      "l1BaseFeeScalar": "0x44d",
      "l1BlobBaseFee": "0x3745254",
      "l1BlobBaseFeeScalar": "0xa118b",
      "l1Fee": "0x1558b8aba",
      "l1GasPrice": "0x407db402",
      "l1GasUsed": "0x640"
    },
    {
      "status": "0x1",
      "cumulativeGasUsed": "0x61e05b",
      "logs": [
        {
          "address": "0x899be185a2a7befa532cb838dabcf45d49c06b0b",
          "topics": [
            "0x9f9f346844d910b1cadde0ebde2eeee0e6c66646f1e62127ef976c4ea3bf46d7",
            "0x000000000000000000000000036cbd53842c5426634e7929541ec2318f3dcf7e"
          ],
          "data": "0x0000000000000000000000000000000000000000000000000000000000000001000000000000000000000000000000000000000000000000000000000000000600000000000000000000000000000000000000000000000000000000000f4240",
          "blockHash": "0xd6677ad425fe93e12e99eba8bdf2870b36545104161bff66f75165f30279f9d2",
          "blockNumber": "0x22f0d66",
          "blockTimestamp": "0x697179ac",
          "transactionHash": "0x1828791e143345eec38bdbdd5f3fc1c747edfc625fe5d37cd4e9fd9d27651305",
          "transactionIndex": "0x16",
          "logIndex": "0x60",
          "removed": false
        }
      ],
      "logsBloom": "0x00000000000000000000000000000000000000000000000000000000000000000000000000000000000000000000000000000000000000000000000000000100000000000000000000000000000000000000000000000000000000000000000000000000000000000000000000000000000000000000000000000000000040000000000040000000000000000000000000000000000000000000010000000000000000000000000000000000000000000000000000000000100000000000000000000000000000000000000000000000000000004000000000004000000000000000000000000000000000008040000000000000000000000000000000000000",
      "type": "0x2",
      "transactionHash": "0x1828791e143345eec38bdbdd5f3fc1c747edfc625fe5d37cd4e9fd9d27651305",
      "transactionIndex": "0x16",
      "blockHash": "0xd6677ad425fe93e12e99eba8bdf2870b36545104161bff66f75165f30279f9d2",
      "blockNumber": "0x22f0d66",
      "gasUsed": "0x16d14",
      "effectiveGasPrice": "0x124f80",
      "blobGasUsed": "0x79e0",
      "from": "0x16dd701a8d550951ad2f61808667ee2842ff645a",
      "to": "0x899be185a2a7befa532cb838dabcf45d49c06b0b",
      "contractAddress": null,
      "daFootprintGasScalar": "0x138",
      "l1BaseFeeScalar": "0x44d",
      "l1BlobBaseFee": "0x3745254",
      "l1BlobBaseFeeScalar": "0xa118b",
      "l1Fee": "0x1571a2919",
      "l1GasPrice": "0x407db402",
      "l1GasUsed": "0x647"
    },
    {
      "status": "0x1",
      "cumulativeGasUsed": "0x6299a7",
      "logs": [
        {
          "address": "0x692c59e6f45a4a2336a7fdf79fba182f713fa9ff",
          "topics": [
            "0x458609883bfc2c0eb1300d68839f0a6aa0b7a1997aba004773946caf044a06ff",
            "0x0000000000000000000000000000000000000000000000000000000000000000",
            "0x000000000000000000000000000000000022d473030f116ddee9f6b43ac78ba3"
          ],
          "data": "0x",
          "blockHash": "0xd6677ad425fe93e12e99eba8bdf2870b36545104161bff66f75165f30279f9d2",
          "blockNumber": "0x22f0d66",
          "blockTimestamp": "0x697179ac",
          "transactionHash": "0x0e298a04b50cb6f0356437f6f436bf721fe7db6541165ad823b6e52a9bf96877",
          "transactionIndex": "0x17",
          "logIndex": "0x61",
          "removed": false
        }
      ],
      "logsBloom": "0x00000000000000000000000000000000000000000000000000000000000000000000000000000000000000000000008000000000800000000000000100000000000000200000000000004000000000000000000800000800000000000000000000000000020000000000000000000800000000000000000000000000000000000000000000000000000000000000000000000000000000000000000000000000000000000000000000000000100000000000000000000000000000000000000000000000000000000000000000000000000000000000000000000000000020080000000000000000000000000000000000000000000000000000000000000000",
      "type": "0x2",
      "transactionHash": "0x0e298a04b50cb6f0356437f6f436bf721fe7db6541165ad823b6e52a9bf96877",
      "transactionIndex": "0x17",
      "blockHash": "0xd6677ad425fe93e12e99eba8bdf2870b36545104161bff66f75165f30279f9d2",
      "blockNumber": "0x22f0d66",
      "gasUsed": "0xb94c",
      "effectiveGasPrice": "0x124f80",
      "blobGasUsed": "0x79e0",
      "from": "0x16dd701a8d550951ad2f61808667ee2842ff645a",
      "to": "0x692c59e6f45a4a2336a7fdf79fba182f713fa9ff",
      "contractAddress": null,
      "daFootprintGasScalar": "0x138",
      "l1BaseFeeScalar": "0x44d",
      "l1BlobBaseFee": "0x3745254",
      "l1BlobBaseFeeScalar": "0xa118b",
      "l1Fee": "0x1558b8aba",
      "l1GasPrice": "0x407db402",
      "l1GasUsed": "0x640"
    },
    {
      "status": "0x1",
      "cumulativeGasUsed": "0x63adfd",
      "logs": [
        {
          "address": "0x692c59e6f45a4a2336a7fdf79fba182f713fa9ff",
          "topics": [
            "0x66d1743eb0623f0706f2f3ac8c976056b13ce34892bf702aa945975eff5b6e31",
            "0x0000000000000000000000000000000000000000000000000000000000000000",
            "0x000000000000000000000000c9cb77cf3a98fe05c361804cec423e5c9689d825"
          ],
          "data": "0x00000000000000000000000000000000000000000000000000000000000000000000000000000000000000000000000000000000000000000001c6bf52634000",
          "blockHash": "0xd6677ad425fe93e12e99eba8bdf2870b36545104161bff66f75165f30279f9d2",
          "blockNumber": "0x22f0d66",
          "blockTimestamp": "0x697179ac",
          "transactionHash": "0x9a48bebcbfab2fafe4a8d03b62a0c582036b68e781328775bc59214a815490bb",
          "transactionIndex": "0x18",
          "logIndex": "0x62",
          "removed": false
        }
      ],
      "logsBloom": "0x00000000000000000000000000000000000000000000000000000000000000000000000000000000000000000000000000000000000000000000000000000000000000200000000000000000000000000000000000000000000000000000000000000000020000000000000000000800000000000000000000000000000000000000000000000000000000000000000000000000000000000000000000000000000000000000800000000100100000001000000000000000000000000000000000200000000000000000000000000000000000000000000000000000000020080002000000000000000000000000000000000000000000000000000000000080",
      "type": "0x2",
      "transactionHash": "0x9a48bebcbfab2fafe4a8d03b62a0c582036b68e781328775bc59214a815490bb",
      "transactionIndex": "0x18",
      "blockHash": "0xd6677ad425fe93e12e99eba8bdf2870b36545104161bff66f75165f30279f9d2",
      "blockNumber": "0x22f0d66",
      "gasUsed": "0x11456",
      "effectiveGasPrice": "0x124f80",
      "blobGasUsed": "0x79e0",
      "from": "0x16dd701a8d550951ad2f61808667ee2842ff645a",
      "to": "0x692c59e6f45a4a2336a7fdf79fba182f713fa9ff",
      "contractAddress": null,
      "daFootprintGasScalar": "0x138",
      "l1BaseFeeScalar": "0x44d",
      "l1BlobBaseFee": "0x3745254",
      "l1BlobBaseFeeScalar": "0xa118b",
      "l1Fee": "0x1558b8aba",
      "l1GasPrice": "0x407db402",
      "l1GasUsed": "0x640"
    },
    {
      "status": "0x1",
      "cumulativeGasUsed": "0x6467ff",
      "logs": [
        {
          "address": "0x899be185a2a7befa532cb838dabcf45d49c06b0b",
          "topics": [
            "0x1233c8089b3809d6729e60d9aaf8ef4d324bfea2135dd985ea9242a599f1770e"
          ],
          "data": "0x00000000000000000000000000000000000000000000000000000000000000000000000000000000000000000000000000000000000000000001c6bf52634000",
          "blockHash": "0xd6677ad425fe93e12e99eba8bdf2870b36545104161bff66f75165f30279f9d2",
          "blockNumber": "0x22f0d66",
          "blockTimestamp": "0x697179ac",
          "transactionHash": "0xcbfd53ebf373e6a89a4f47ca35e6fc0a0b493f7b722f4dacce7b56cd4c5a92d4",
          "transactionIndex": "0x19",
          "logIndex": "0x63",
          "removed": false
        }
      ],
      "logsBloom": "0x00000000000000000000000000000000000000000000000000000000000000000000000000000000000000000000000000000000000000000000000000000100000000000000000000000000000000000000000000000000000000000000000000000000000000000000000000000000000000000000000000000000000000000000000000000000000000000000000000000000000000000000000000000000000000000000000000000000000000000000000000000000000000000000000000000000000000000000000000000000000000000000000000004002000000000000000000000000000000008000004000000000000000000000000000000004",
      "type": "0x2",
      "transactionHash": "0xcbfd53ebf373e6a89a4f47ca35e6fc0a0b493f7b722f4dacce7b56cd4c5a92d4",
      "transactionIndex": "0x19",
      "blockHash": "0xd6677ad425fe93e12e99eba8bdf2870b36545104161bff66f75165f30279f9d2",
      "blockNumber": "0x22f0d66",
      "gasUsed": "0xba02",
      "effectiveGasPrice": "0x124f80",
      "blobGasUsed": "0x79e0",
      "from": "0x16dd701a8d550951ad2f61808667ee2842ff645a",
      "to": "0x899be185a2a7befa532cb838dabcf45d49c06b0b",
      "contractAddress": null,
      "daFootprintGasScalar": "0x138",
      "l1BaseFeeScalar": "0x44d",
      "l1BlobBaseFee": "0x3745254",
      "l1BlobBaseFeeScalar": "0xa118b",
      "l1Fee": "0x1558b8aba",
      "l1GasPrice": "0x407db402",
      "l1GasUsed": "0x640"
    }
  ],
  "libraries": [],
  "pending": [],
  "returns": {},
  "timestamp": 1769044395630,
  "chain": 84532,
  "commit": null
}