{
  "transactions": [
    {
      "hash": "0x20aff50e9b9d100ebda0c09213a3900500a971331a22ac9e85f84a5d26dd253d",
      "transactionType": "CALL",
      "contractName": null,
      "contractAddress": "0xc5e6cb67a031be1891a65f13ac94701dc352b2c2",
      "function": "setTokenAllowed(address,bool)",
      "arguments": [
        "0x036CbD53842c5426634e7929541eC2318f3dCF7e",
        "true"
      ],
      "transaction": {
        "from": "0x16dd701a8d550951ad2f61808667ee2842ff645a",
        "to": "0xc5e6cb67a031be1891a65f13ac94701dc352b2c2",
        "gas": "0xf96d",
        "value": "0x0",
        "input": "0x15f69012000000000000000000000000036cbd53842c5426634e7929541ec2318f3dcf7e0000000000000000000000000000000000000000000000000000000000000001",
        "nonce": "0x71",
        "chainId": "0x14a34"
      },
      "additionalContracts": [],
      "isFixedGasLimit": false
    },
    {
      "hash": "0x688be84cf35d8300fc5aeafaa0713271c03aa520cc20db6f491af9a65ed9460a",
      "transactionType": "CALL",
      "contractName": null,
      "contractAddress": "0x55049432e8673094f2b774200deaf80feb9ae41e",
      "function": "setFeeTokenConfig(address,bool,uint8,uint256)",
      "arguments": [
        "0x036CbD53842c5426634e7929541eC2318f3dCF7e",
        "true",
        "6",
        "1000000"
      ],
      "transaction": {
        "from": "0x16dd701a8d550951ad2f61808667ee2842ff645a",
        "to": "0x55049432e8673094f2b774200deaf80feb9ae41e",
        "gas": "0x1f843",
        "value": "0x0",
        "input": "0xa2c174e1000000000000000000000000036cbd53842c5426634e7929541ec2318f3dcf7e0000000000000000000000000000000000000000000000000000000000000001000000000000000000000000000000000000000000000000000000000000000600000000000000000000000000000000000000000000000000000000000f4240",
        "nonce": "0x72",
        "chainId": "0x14a34"
      },
      "additionalContracts": [],
      "isFixedGasLimit": false
    },
    {
      "hash": "0x24b6664eff4a5d30ea44df14e872f4aa67d288f75851e25bc7ba10451b6819e6",
      "transactionType": "CALL",
      "contractName": null,
      "contractAddress": "0xc5e6cb67a031be1891a65f13ac94701dc352b2c2",
      "function": "setPermit2(address)",
      "arguments": [
        "0x000000000022D473030F116dDEE9F6B43aC78BA3"
      ],
      "transaction": {
        "from": "0x16dd701a8d550951ad2f61808667ee2842ff645a",
        "to": "0xc5e6cb67a031be1891a65f13ac94701dc352b2c2",
        "gas": "0xfff0",
        "value": "0x0",
        "input": "0x101ec30a000000000000000000000000000000000022d473030f116ddee9f6b43ac78ba3",
        "nonce": "0x73",
        "chainId": "0x14a34"
      },
      "additionalContracts": [],
      "isFixedGasLimit": false
    },
    {
      "hash": "0xc8cb4e83f832005e5d6e6ecd26f9929d82e2f9b61c88612552250009c81f91f4",
      "transactionType": "CALL",
      "contractName": null,
      "contractAddress": "0xc5e6cb67a031be1891a65f13ac94701dc352b2c2",
      "function": "setStipendConfig(address,uint256)",
      "arguments": [
        "0xC9cb77CF3a98FE05C361804Cec423e5c9689D825",
        "500000000000000"
      ],
      "transaction": {
        "from": "0x16dd701a8d550951ad2f61808667ee2842ff645a",
        "to": "0xc5e6cb67a031be1891a65f13ac94701dc352b2c2",
        "gas": "0x17d92",
        "value": "0x0",
        "input": "0xf359ca49000000000000000000000000c9cb77cf3a98fe05c361804cec423e5c9689d8250000000000000000000000000000000000000000000000000001c6bf52634000",
        "nonce": "0x74",
        "chainId": "0x14a34"
      },
      "additionalContracts": [],
      "isFixedGasLimit": false
    },
    {
      "hash": "0x53939a677ffd2bf4518ba723c382dad5ca20623b4033ea50a8b37480582ce6e9",
      "transactionType": "CALL",
      "contractName": null,
      "contractAddress": "0x55049432e8673094f2b774200deaf80feb9ae41e",
      "function": "setStipendMaxWei(uint256)",
      "arguments": [
        "500000000000000"
      ],
      "transaction": {
        "from": "0x16dd701a8d550951ad2f61808667ee2842ff645a",
        "to": "0x55049432e8673094f2b774200deaf80feb9ae41e",
        "gas": "0x11009",
        "value": "0x0",
        "input": "0xd6296bd40000000000000000000000000000000000000000000000000001c6bf52634000",
        "nonce": "0x75",
        "chainId": "0x14a34"
      },
      "additionalContracts": [],
      "isFixedGasLimit": false
    }
  ],
  "receipts": [
    {
      "status": "0x1",
      "cumulativeGasUsed": "0x25f055",
      "logs": [],
      "logsBloom": "0x00000000000000000000000000000000000000000000000000000000000000000000000000000000000000000000000000000000000000000000000000000000000000000000000000000000000000000000000000000000000000000000000000000000000000000000000000000000000000000000000000000000000000000000000000000000000000000000000000000000000000000000000000000000000000000000000000000000000000000000000000000000000000000000000000000000000000000000000000000000000000000000000000000000000000000000000000000000000000000000000000000000000000000000000000000000",
      "type": "0x2",
      "transactionHash": "0x20aff50e9b9d100ebda0c09213a3900500a971331a22ac9e85f84a5d26dd253d",
      "transactionIndex": "0xa",
      "blockHash": "0x7b4a6577dcacfb24b80184e5a27d2d2f04eb014241c5cae8ea625e92a68bb014",
      "blockNumber": "0x22f08cd",
      "gasUsed": "0xb495",
      "effectiveGasPrice": "0x124f80",
      "blobGasUsed": "0x79e0",
      "from": "0x16dd701a8d550951ad2f61808667ee2842ff645a",
      "to": "0xc5e6cb67a031be1891a65f13ac94701dc352b2c2",
      "contractAddress": null,
      "daFootprintGasScalar": "0x138",
      "l1BaseFeeScalar": "0x44d",
      "l1BlobBaseFee": "0x3aad866",
      "l1BlobBaseFeeScalar": "0xa118b",
      "l1Fee": "0x165994a14",
      "l1GasPrice": "0x41a05859",
      "l1GasUsed": "0x640"
    },
    {
      "status": "0x1",
      "cumulativeGasUsed": "0x275d69",
      "logs": [
        {
          "address": "0x55049432e8673094f2b774200deaf80feb9ae41e",
          "topics": [
            "0x9f9f346844d910b1cadde0ebde2eeee0e6c66646f1e62127ef976c4ea3bf46d7",
            "0x000000000000000000000000036cbd53842c5426634e7929541ec2318f3dcf7e"
          ],
          "data": "0x0000000000000000000000000000000000000000000000000000000000000001000000000000000000000000000000000000000000000000000000000000000600000000000000000000000000000000000000000000000000000000000f4240",
          "blockHash": "0x7b4a6577dcacfb24b80184e5a27d2d2f04eb014241c5cae8ea625e92a68bb014",
          "blockNumber": "0x22f08cd",
          "blockTimestamp": "0x6971707a",
          "transactionHash": "0x688be84cf35d8300fc5aeafaa0713271c03aa520cc20db6f491af9a65ed9460a",
          "transactionIndex": "0xb",
          "logIndex": "0x6a",
          "removed": false
        }
      ],
      "logsBloom": "0x00000000000000000000000000000000000000000000000000000000000000000000000000002000000000000000000000000000000000000000000000000000000000000000000000000000000000000000000000000000000000000000000000000000001000000000000000000000000000000000000000000000000040000000000040000000000000000000000000008000000000000000010000000000000000000000000000000000000000000000000000000000100000000000000000000000000000000000000000000000000000004000000000000000000000000000000000000000000000000040000000000000000000000000000000000000",
      "type": "0x2",
      "transactionHash": "0x688be84cf35d8300fc5aeafaa0713271c03aa520cc20db6f491af9a65ed9460a",
      "transactionIndex": "0xb",
      "blockHash": "0x7b4a6577dcacfb24b80184e5a27d2d2f04eb014241c5cae8ea625e92a68bb014",
      "blockNumber": "0x22f08cd",
      "gasUsed": "0x16d14",
      "effectiveGasPrice": "0x124f80",
      "blobGasUsed": "0x79e0",
      "from": "0x16dd701a8d550951ad2f61808667ee2842ff645a",
      "to": "0x55049432e8673094f2b774200deaf80feb9ae41e",
      "contractAddress": null,
      "daFootprintGasScalar": "0x138",
      "l1BaseFeeScalar": "0x44d",
      "l1BlobBaseFee": "0x3aad866",
      "l1BlobBaseFeeScalar": "0xa118b",
      "l1Fee": "0x165994a14",
      "l1GasPrice": "0x41a05859",
      "l1GasUsed": "0x640"
    },
    {
      "status": "0x1",
      "cumulativeGasUsed": "0x2c321b",
      "logs": [
        {
          "address": "0xc5e6cb67a031be1891a65f13ac94701dc352b2c2",
          "topics": [
            "0x458609883bfc2c0eb1300d68839f0a6aa0b7a1997aba004773946caf044a06ff",
            "0x0000000000000000000000000000000000000000000000000000000000000000",
            "0x000000000000000000000000000000000022d473030f116ddee9f6b43ac78ba3"
          ],
          "data": "0x",
          "blockHash": "0x7b4a6577dcacfb24b80184e5a27d2d2f04eb014241c5cae8ea625e92a68bb014",
          "blockNumber": "0x22f08cd",
          "blockTimestamp": "0x6971707a",
          "transactionHash": "0x24b6664eff4a5d30ea44df14e872f4aa67d288f75851e25bc7ba10451b6819e6",
          "transactionIndex": "0xd",
          "logIndex": "0x76",
          "removed": false
        }
      ],
      "logsBloom": "0x00000800000000000000000000000000000000000000000000000000000000000000000000000000000000000000008000000000800000000000000100000000000000000000000000004000000000000000000800000800000000000000000000000000020000000000000000000800000000000000000000000000000000000000000000000000000000000000000000000000000000000000000000000000000000000000000000000000000000000000000000000000000000000000000000000000000000000000000000000000000000020000000000000000000020000000000000000000000000000000000000000000100000000000000000000000",
      "type": "0x2",
      "transactionHash": "0x24b6664eff4a5d30ea44df14e872f4aa67d288f75851e25bc7ba10451b6819e6",
      "transactionIndex": "0xd",
      "blockHash": "0x7b4a6577dcacfb24b80184e5a27d2d2f04eb014241c5cae8ea625e92a68bb014",
      "blockNumber": "0x22f08cd",
      "gasUsed": "0xb94c",
      "effectiveGasPrice": "0x124f80",
      "blobGasUsed": "0x79e0",
      "from": "0x16dd701a8d550951ad2f61808667ee2842ff645a",
      "to": "0xc5e6cb67a031be1891a65f13ac94701dc352b2c2",
      "contractAddress": null,
      "daFootprintGasScalar": "0x138",
      "l1BaseFeeScalar": "0x44d",
      "l1BlobBaseFee": "0x3aad866",
      "l1BlobBaseFeeScalar": "0xa118b",
      "l1Fee": "0x165994a14",
      "l1GasPrice": "0x41a05859",
      "l1GasUsed": "0x640"
    },
    {
      "status": "0x1",
      "cumulativeGasUsed": "0x2d465b",
      "logs": [
        {
          "address": "0xc5e6cb67a031be1891a65f13ac94701dc352b2c2",
          "topics": [
            "0x66d1743eb0623f0706f2f3ac8c976056b13ce34892bf702aa945975eff5b6e31",
            "0x0000000000000000000000000000000000000000000000000000000000000000",
            "0x000000000000000000000000c9cb77cf3a98fe05c361804cec423e5c9689d825"
          ],
          "data": "0x00000000000000000000000000000000000000000000000000000000000000000000000000000000000000000000000000000000000000000001c6bf52634000",
          "blockHash": "0x7b4a6577dcacfb24b80184e5a27d2d2f04eb014241c5cae8ea625e92a68bb014",
          "blockNumber": "0x22f08cd",
          "blockTimestamp": "0x6971707a",
          "transactionHash": "0x53939a677ffd2bf4518ba723c382dad5ca20623b4033ea50a8b37480582ce6e9",
          "transactionIndex": "0xe",
          "logIndex": "0x77",
          "removed": false
        }
      ],
      "logsBloom": "0x00000800000000000000000000000000000000000000000000000000000000000000000000000000000000000000000000000000000000000000000000000000000000000000000000000000000000000000000000000000000000000000000000000000020000000000000000000800000000000000000000000000000000000000000000000000000000000000000000000000000000000000000000000000000000000000800000000100000000001000000000000000000000000000000000200000000000000000000000000000000000020000000000000000000020000002000000000000000000000000000000000000100000000000000000000080",
      "type": "0x2",
      "transactionHash": "0x53939a677ffd2bf4518ba723c382dad5ca20623b4033ea50a8b37480582ce6e9",
      "transactionIndex": "0xe",
      "blockHash": "0x7b4a6577dcacfb24b80184e5a27d2d2f04eb014241c5cae8ea625e92a68bb014",
      "blockNumber": "0x22f08cd",
      "gasUsed": "0x11440",
      "effectiveGasPrice": "0x124f80",
      "blobGasUsed": "0x79e0",
      "from": "0x16dd701a8d550951ad2f61808667ee2842ff645a",
      "to": "0xc5e6cb67a031be1891a65f13ac94701dc352b2c2",
      "contractAddress": null,
      "daFootprintGasScalar": "0x138",
      "l1BaseFeeScalar": "0x44d",
      "l1BlobBaseFee": "0x3aad866",
      "l1BlobBaseFeeScalar": "0xa118b",
      "l1Fee": "0x165994a14",
      "l1GasPrice": "0x41a05859",
      "l1GasUsed": "0x640"
    },
    {
      "status": "0x1",
      "cumulativeGasUsed": "0x2e005d",
      "logs": [
        {
          "address": "0x55049432e8673094f2b774200deaf80feb9ae41e",
          "topics": [
            "0x1233c8089b3809d6729e60d9aaf8ef4d324bfea2135dd985ea9242a599f1770e"
          ],
          "data": "0x00000000000000000000000000000000000000000000000000000000000000000000000000000000000000000000000000000000000000000001c6bf52634000",
          "blockHash": "0x7b4a6577dcacfb24b80184e5a27d2d2f04eb014241c5cae8ea625e92a68bb014",
          "blockNumber": "0x22f08cd",
          "blockTimestamp": "0x6971707a",
          "transactionHash": "0xc8cb4e83f832005e5d6e6ecd26f9929d82e2f9b61c88612552250009c81f91f4",
          "transactionIndex": "0xf",
          "logIndex": "0x78",
          "removed": false
        }
      ],
      "logsBloom": "0x00000000000000000000000000000000000000000000000000000000000000000000000000002000000000000000000000000000000000000000000000000000000000000000000000000000000000000000000000000000000000000000000000000000001000000000000000000000000000000000000000000000000000000000000000000000000000000000000000008000000000000000000000000000000000000000000000000000000000000000000000000000000000000000000000000000000000000000000000000000000000000000000000000002000000000000000000000000000000000000004000000000000000000000000000000004",
      "type": "0x2",
      "transactionHash": "0xc8cb4e83f832005e5d6e6ecd26f9929d82e2f9b61c88612552250009c81f91f4",
      "transactionIndex": "0xf",
      "blockHash": "0x7b4a6577dcacfb24b80184e5a27d2d2f04eb014241c5cae8ea625e92a68bb014",
      "blockNumber": "0x22f08cd",
      "gasUsed": "0xba02",
      "effectiveGasPrice": "0x124f80",
      "blobGasUsed": "0x79e0",
      "from": "0x16dd701a8d550951ad2f61808667ee2842ff645a",
      "to": "0x55049432e8673094f2b774200deaf80feb9ae41e",
      "contractAddress": null,
      "daFootprintGasScalar": "0x138",
      "l1BaseFeeScalar": "0x44d",
      "l1BlobBaseFee": "0x3aad866",
      "l1BlobBaseFeeScalar": "0xa118b",
      "l1Fee": "0x165994a14",
      "l1GasPrice": "0x41a05859",
      "l1GasUsed": "0x640"
    }
  ],
  "libraries": [],
  "pending": [],
  "returns": {},
  "timestamp": 1769042040545,
  "chain": 84532,
  "commit": null
}