{
  "transactions": [
    {
      "hash": "0x5ae9ecc607a4977955210d154eb0aa8706cf7ab7a05b1d79bc60e80819093822",
      "transactionType": "CALL",
      "contractName": null,
      "contractAddress": "0x463be1029c6979c6612eb00e56fad189615e67f5",
      "function": "setPaymasterAllowed(address,bool)",
      "arguments": [
        "0xa3580c231e135BdB117FB32EdcBb3B3383E0f576",
        "true"
      ],
      "transaction": {
        "from": "0x16dd701a8d550951ad2f61808667ee2842ff645a",
        "to": "0x463be1029c6979c6612eb00e56fad189615e67f5",
        "gas": "0x10b1a",
        "value": "0x0",
        "input": "0xb12faec0000000000000000000000000a3580c231e135bdb117fb32edcbb3b3383e0f5760000000000000000000000000000000000000000000000000000000000000001",
        "nonce": "0x3f",
        "chainId": "0x14a34"
      },
      "additionalContracts": [],
      "isFixedGasLimit": false
    },
    {
      "hash": "0x48a3c022604f33176441dd9756cf22a38a10eab777535b190871029e5cf990fb",
      "transactionType": "CALL",
      "contractName": null,
      "contractAddress": "0x463be1029c6979c6612eb00e56fad189615e67f5",
      "function": "setTokenAllowed(address,bool)",
      "arguments": [
        "0x036CbD53842c5426634e7929541eC2318f3dCF7e",
        "true"
      ],
      "transaction": {
        "from": "0x16dd701a8d550951ad2f61808667ee2842ff645a",
        "to": "0x463be1029c6979c6612eb00e56fad189615e67f5",
        "gas": "0x90a9",
        "value": "0x0",
        "input": "0x15f69012000000000000000000000000036cbd53842c5426634e7929541ec2318f3dcf7e0000000000000000000000000000000000000000000000000000000000000001",
        "nonce": "0x40",
        "chainId": "0x14a34"
      },
      "additionalContracts": [],
      "isFixedGasLimit": false
    },
    {
      "hash": "0xd0f6f5755257b29d0da3e0d972bbdd7b68a79a11e6423fa0e06ee2f4b31ab335",
      "transactionType": "CALL",
      "contractName": null,
      "contractAddress": "0xa3580c231e135bdb117fb32edcbb3b3383e0f576",
      "function": "setFeeTokenConfig(address,bool,uint8,uint256)",
      "arguments": [
        "0x036CbD53842c5426634e7929541eC2318f3dCF7e",
        "true",
        "6",
        "1000000"
      ],
      "transaction": {
        "from": "0x16dd701a8d550951ad2f61808667ee2842ff645a",
        "to": "0xa3580c231e135bdb117fb32edcbb3b3383e0f576",
        "gas": "0x1f7ec",
        "value": "0x0",
        "input": "0xa2c174e1000000000000000000000000036cbd53842c5426634e7929541ec2318f3dcf7e0000000000000000000000000000000000000000000000000000000000000001000000000000000000000000000000000000000000000000000000000000000600000000000000000000000000000000000000000000000000000000000f4240",
        "nonce": "0x41",
        "chainId": "0x14a34"
      },
      "additionalContracts": [],
      "isFixedGasLimit": false
    }
  ],
  "receipts": [
    {
      "status": "0x1",
      "cumulativeGasUsed": "0x1f709f",
      "logs": [],
      "logsBloom": "0x00000000000000000000000000000000000000000000000000000000000000000000000000000000000000000000000000000000000000000000000000000000000000000000000000000000000000000000000000000000000000000000000000000000000000000000000000000000000000000000000000000000000000000000000000000000000000000000000000000000000000000000000000000000000000000000000000000000000000000000000000000000000000000000000000000000000000000000000000000000000000000000000000000000000000000000000000000000000000000000000000000000000000000000000000000000",
      "type": "0x2",
      "transactionHash": "0x5ae9ecc607a4977955210d154eb0aa8706cf7ab7a05b1d79bc60e80819093822",
      "transactionIndex": "0x12",
      "blockHash": "0x7983e05eb624981725e9beb0121cedc86dbde27c3d5f839e83370ff118d0e2bb",
      "blockNumber": "0x2285b4c",
      "gasUsed": "0xb6a3",
      "effectiveGasPrice": "0x125055",
      "blobGasUsed": "0x79e0",
      "from": "0x16dd701a8d550951ad2f61808667ee2842ff645a",
      "to": "0x463be1029c6979c6612eb00e56fad189615e67f5",
      "contractAddress": null,
      "daFootprintGasScalar": "0x138",
      "l1BaseFeeScalar": "0x44d",
      "l1BlobBaseFee": "0x787",
      "l1BlobBaseFeeScalar": "0xa118b",
      "l1Fee": "0x2e9d2",
      "l1GasPrice": "0x8d6c",
      "l1GasUsed": "0x640"
    },
    {
      "status": "0x1",
      "cumulativeGasUsed": "0x267c4c",
      "logs": [],
      "logsBloom": "0x00000000000000000000000000000000000000000000000000000000000000000000000000000000000000000000000000000000000000000000000000000000000000000000000000000000000000000000000000000000000000000000000000000000000000000000000000000000000000000000000000000000000000000000000000000000000000000000000000000000000000000000000000000000000000000000000000000000000000000000000000000000000000000000000000000000000000000000000000000000000000000000000000000000000000000000000000000000000000000000000000000000000000000000000000000000",
      "type": "0x2",
      "transactionHash": "0x48a3c022604f33176441dd9756cf22a38a10eab777535b190871029e5cf990fb",
      "transactionIndex": "0x16",
      "blockHash": "0x7983e05eb624981725e9beb0121cedc86dbde27c3d5f839e83370ff118d0e2bb",
      "blockNumber": "0x2285b4c",
      "gasUsed": "0x68bc",
      "effectiveGasPrice": "0x125055",
      "blobGasUsed": "0x79e0",
      "from": "0x16dd701a8d550951ad2f61808667ee2842ff645a",
      "to": "0x463be1029c6979c6612eb00e56fad189615e67f5",
      "contractAddress": null,
      "daFootprintGasScalar": "0x138",
      "l1BaseFeeScalar": "0x44d",
      "l1BlobBaseFee": "0x787",
      "l1BlobBaseFeeScalar": "0xa118b",
      "l1Fee": "0x2e9d2",
      "l1GasPrice": "0x8d6c",
      "l1GasUsed": "0x640"
    },
    {
      "status": "0x1",
      "cumulativeGasUsed": "0x27e921",
      "logs": [
        {
          "address": "0xa3580c231e135bdb117fb32edcbb3b3383e0f576",
          "topics": [
            "0x9f9f346844d910b1cadde0ebde2eeee0e6c66646f1e62127ef976c4ea3bf46d7",
            "0x000000000000000000000000036cbd53842c5426634e7929541ec2318f3dcf7e"
          ],
          "data": "0x0000000000000000000000000000000000000000000000000000000000000001000000000000000000000000000000000000000000000000000000000000000600000000000000000000000000000000000000000000000000000000000f4240",
          "blockHash": "0x7983e05eb624981725e9beb0121cedc86dbde27c3d5f839e83370ff118d0e2bb",
          "blockNumber": "0x2285b4c",
          "blockTimestamp": "0x69641578",
          "transactionHash": "0xd0f6f5755257b29d0da3e0d972bbdd7b68a79a11e6423fa0e06ee2f4b31ab335",
          "transactionIndex": "0x17",
          "logIndex": "0x49",
          "removed": false
        }
      ],
      "logsBloom": "0x00000000000000000000000000000000000000000000000000040000000000000000000000000000000000000000000000000000000000000000000000000000000000000000000000000000000000000000000000000000000000000000000000000000000000000000000000000000000000000000000000000000000040000000000040000000200000000000000000000000000000000000010000000000000000000000000000000000000000000000000000000000100000000000000000000000000000000000000000000000000000004000000000000000000000000000000000000000000400000040000000000000000000000000000000000000",
      "type": "0x2",
      "transactionHash": "0xd0f6f5755257b29d0da3e0d972bbdd7b68a79a11e6423fa0e06ee2f4b31ab335",
      "transactionIndex": "0x17",
      "blockHash": "0x7983e05eb624981725e9beb0121cedc86dbde27c3d5f839e83370ff118d0e2bb",
      "blockNumber": "0x2285b4c",
      "gasUsed": "0x16cd5",
      "effectiveGasPrice": "0x125055",
      "blobGasUsed": "0x79e0",
      "from": "0x16dd701a8d550951ad2f61808667ee2842ff645a",
      "to": "0xa3580c231e135bdb117fb32edcbb3b3383e0f576",
      "contractAddress": null,
      "daFootprintGasScalar": "0x138",
      "l1BaseFeeScalar": "0x44d",
      "l1BlobBaseFee": "0x787",
      "l1BlobBaseFeeScalar": "0xa118b",
      "l1Fee": "0x2e9d2",
      "l1GasPrice": "0x8d6c",
      "l1GasUsed": "0x640"
    }
  ],
  "libraries": [],
  "pending": [],
  "returns": {},
  "timestamp": 1768166775881,
  "chain": 84532,
  "commit": null
}