{
  "transactions": [
    {
      "hash": "0x217777b9f6b75b144fe145b6d091a22eb8d575754bf39467e1bf21d0dc4dd798",
      "transactionType": "CALL",
      "contractName": null,
      "contractAddress": "0x0000000071727de22e5e9d8baf0edac6f37da032",
      "function": "depositTo(address)",
      "arguments": [
        "0xA3BCb92ec164E2F6CEc6aCdeb2cdEBB4f688FBD8"
      ],
      "transaction": {
        "from": "0x16dd701a8d550951ad2f61808667ee2842ff645a",
        "to": "0x0000000071727de22e5e9d8baf0edac6f37da032",
        "gas": "0xf606",
        "value": "0x2386f26fc10000",
        "input": "0xb760faf9000000000000000000000000a3bcb92ec164e2f6cec6acdeb2cdebb4f688fbd8",
        "nonce": "0x52",
        "chainId": "0x14a34"
      },
      "additionalContracts": [],
      "isFixedGasLimit": false
    }
  ],
  "receipts": [
    {
      "status": "0x1",
      "cumulativeGasUsed": "0x6df56a",
      "logs": [
        {
          "address": "0x0000000071727de22e5e9d8baf0edac6f37da032",
          "topics": [
            "0x2da466a7b24304f47e87fa2e1e5a81b9831ce54fec19055ce277ca2f39ba42c4",
            "0x000000000000000000000000a3bcb92ec164e2f6cec6acdeb2cdebb4f688fbd8"
          ],
          "data": "0x000000000000000000000000000000000000000000000000002386f26fc10000",
          "blockHash": "0x3efff1feb9cde0b2d454608414a6b6cf7d1eddc6f90a99ee9744ca868a0aa57d",
          "blockNumber": "0x22c97c9",
          "blockTimestamp": "0x696c8e72",
          "transactionHash": "0x217777b9f6b75b144fe145b6d091a22eb8d575754bf39467e1bf21d0dc4dd798",
          "transactionIndex": "0xd",
          "logIndex": "0x15",
          "removed": false
        }
      ],
      "logsBloom": "0x00000000000000000000000000000000000000000000000000000000000000000000000000000000000000000000000000000000000000000000080000000000000000000000000000000000000000000040000000000000000000000000200000000000000800000000000000000000000000000000000000000000000200000000000000000000000000000000000000000000000000000000000000000040000000000000000000000000000000000000000000000000000000000000000000000000000000400000000000000000000000000000200000000000000000000040000000000000000000000000000000000000000000000000000000000000",
      "type": "0x2",
      "transactionHash": "0x217777b9f6b75b144fe145b6d091a22eb8d575754bf39467e1bf21d0dc4dd798",
      "transactionIndex": "0xd",
      "blockHash": "0x3efff1feb9cde0b2d454608414a6b6cf7d1eddc6f90a99ee9744ca868a0aa57d",
      "blockNumber": "0x22c97c9",
      "gasUsed": "0xb21f",
      "effectiveGasPrice": "0x124f80",
      "blobGasUsed": "0x79e0",
      "from": "0x16dd701a8d550951ad2f61808667ee2842ff645a",
      "to": "0x0000000071727de22e5e9d8baf0edac6f37da032",
      "contractAddress": null,
      "daFootprintGasScalar": "0x138",
      "l1BaseFeeScalar": "0x44d",
      "l1BlobBaseFee": "0x3577b21",
      "l1BlobBaseFeeScalar": "0xa118b",
      "l1Fee": "0x15103c549",
      "l1GasPrice": "0x4223a347",
      "l1GasUsed": "0x640"
    }
  ],
  "libraries": [],
  "pending": [],
  "returns": {},
  "timestamp": 1768722034226,
  "chain": 84532,
  "commit": null
}