{
  "transactions": [
    {
      "hash": "0xc55eaca511b230fd3c4b0e0f809dd379b30615ae622c9b861fd40b6dca8201c4",
      "transactionType": "CALL",
      "contractName": null,
      "contractAddress": "0x0000000071727de22e5e9d8baf0edac6f37da032",
      "function": "depositTo(address)",
      "arguments": [
        "0xDAB82f0a8A4419b577da36F4f7a54a80ad00aeB8"
      ],
      "transaction": {
        "from": "0x16dd701a8d550951ad2f61808667ee2842ff645a",
        "to": "0x0000000071727de22e5e9d8baf0edac6f37da032",
        "gas": "0x1046e",
        "value": "0x470de4df820000",
        "input": "0xb760faf9000000000000000000000000dab82f0a8a4419b577da36f4f7a54a80ad00aeb8",
        "nonce": "0x5f",
        "chainId": "0x14a34"
      },
      "additionalContracts": [],
      "isFixedGasLimit": false
    }
  ],
  "receipts": [
    {
      "status": "0x1",
      "cumulativeGasUsed": "0x61562",
      "logs": [
        {
          "address": "0x0000000071727de22e5e9d8baf0edac6f37da032",
          "topics": [
            "0x2da466a7b24304f47e87fa2e1e5a81b9831ce54fec19055ce277ca2f39ba42c4",
            "0x000000000000000000000000dab82f0a8a4419b577da36f4f7a54a80ad00aeb8"
          ],
          "data": "0x00000000000000000000000000000000000000000000000000470de4df820000",
          "blockHash": "0x49dde60c8ad30574d74a2abe585e0ccff0184082bcac6bbab56b4cc516ac1c88",
          "blockNumber": "0x22da34e",
          "blockTimestamp": "0x696ea57c",
          "transactionHash": "0xc55eaca511b230fd3c4b0e0f809dd379b30615ae622c9b861fd40b6dca8201c4",
          "transactionIndex": "0x3",
          "logIndex": "0x1",
          "removed": false
        }
      ],
      "logsBloom": "0x00000000000000000000000000000000000000000000000000000000000000000000000000000004000000000000000000000000000000000000000000000000000000000000000000000000000000000040000000000000000000000000200000000040000800000000000000000000000000000000000000000000000200000000000000000000000000000000000000000000000000000000000000000000000000000000000000000000000000000000000000000000000000000000000000000000000000400000000000000000000000000000000000000000000000000040000000000000000000000000000000000080000000000000000000000000",
      "type": "0x2",
      "transactionHash": "0xc55eaca511b230fd3c4b0e0f809dd379b30615ae622c9b861fd40b6dca8201c4",
      "transactionIndex": "0x3",
      "blockHash": "0x49dde60c8ad30574d74a2abe585e0ccff0184082bcac6bbab56b4cc516ac1c88",
      "blockNumber": "0x22da34e",
      "gasUsed": "0xb213",
      "effectiveGasPrice": "0x124f80",
      "blobGasUsed": "0x79e0",
      "from": "0x16dd701a8d550951ad2f61808667ee2842ff645a",
      "to": "0x0000000071727de22e5e9d8baf0edac6f37da032",
      "contractAddress": null,
      "daFootprintGasScalar": "0x138",
      "l1BaseFeeScalar": "0x44d",
      "l1BlobBaseFee": "0x3713dc3",
      "l1BlobBaseFeeScalar": "0xa118b",
      "l1Fee": "0x14c5d7345",
      "l1GasPrice": "0x3bbb04af",
      "l1GasUsed": "0x640"
    }
  ],
  "libraries": [],
  "pending": [],
  "returns": {},
  "timestamp": 1768859003817,
  "chain": 84532,
  "commit": null
}