{
  "transactions": [
    {
      "hash": "0xcd53a7961d86be35ce2de60839c6c0d8826785c255a6b2aab1fcef634fb80a24",
      "transactionType": "CALL",
      "contractName": null,
      "contractAddress": "0x0000000071727de22e5e9d8baf0edac6f37da032",
      "function": "depositTo(address)",
      "arguments": [
        "0x55049432e8673094F2B774200DEaf80fEb9aE41e"
      ],
      "transaction": {
        "from": "0x16dd701a8d550951ad2f61808667ee2842ff645a",
        "to": "0x0000000071727de22e5e9d8baf0edac6f37da032",
        "gas": "0xf606",
        "value": "0x2386f26fc10000",
        "input": "0xb760faf900000000000000000000000055049432e8673094f2b774200deaf80feb9ae41e",
        "nonce": "0x70",
        "chainId": "0x14a34"
      },
      "additionalContracts": [],
      "isFixedGasLimit": false
    }
  ],
  "receipts": [
    {
      "status": "0x1",
      "cumulativeGasUsed": "0x40bb9d",
      "logs": [
        {
          "address": "0x0000000071727de22e5e9d8baf0edac6f37da032",
          "topics": [
            "0x2da466a7b24304f47e87fa2e1e5a81b9831ce54fec19055ce277ca2f39ba42c4",
            "0x00000000000000000000000055049432e8673094f2b774200deaf80feb9ae41e"
          ],
          "data": "0x000000000000000000000000000000000000000000000000002386f26fc10000",
          "blockHash": "0x0d481b4f9df5658dbb4f2a0250ee695c39dc2b32c1e8de515a217c55047baf4f",
          "blockNumber": "0x22f080f",
          "blockTimestamp": "0x69716efe",
          "transactionHash": "0xcd53a7961d86be35ce2de60839c6c0d8826785c255a6b2aab1fcef634fb80a24",
          "transactionIndex": "0x3",
          "logIndex": "0x5",
          "removed": false
        }
      ],
      "logsBloom": "0x00000000000000000000000000000000000000000040000000000000000000000000000000400000000020000000000000000000000000000000000000000000000000000000000000000000000000000040000000000000000000000000200000000000000800000000000000000000000000000000000000000000000200000000000000000000000000000000000000000000000000000000000000000000000000000000000000000000000000000000000000000000000000000000000000000000000000400000000000000000000000000000000000000000000000000040000000000000000000000000000000000000000000000000000000000000",
      "type": "0x2",
      "transactionHash": "0xcd53a7961d86be35ce2de60839c6c0d8826785c255a6b2aab1fcef634fb80a24",
      "transactionIndex": "0x3",
      "blockHash": "0x0d481b4f9df5658dbb4f2a0250ee695c39dc2b32c1e8de515a217c55047baf4f",
      "blockNumber": "0x22f080f",
      "gasUsed": "0xb21f",
      "effectiveGasPrice": "0x127c2a",
      "blobGasUsed": "0x79e0",
      "from": "0x16dd701a8d550951ad2f61808667ee2842ff645a",
      "to": "0x0000000071727de22e5e9d8baf0edac6f37da032",
      "contractAddress": null,
      "daFootprintGasScalar": "0x138",
      "l1BaseFeeScalar": "0x44d",
      "l1BlobBaseFee": "0x406d743",
      "l1BlobBaseFeeScalar": "0xa118b",
      "l1Fee": "0x1715eb901",
      "l1GasPrice": "0x3ad90bc7",
      "l1GasUsed": "0x640"
    }
  ],
  "libraries": [],
  "pending": [],
  "returns": {},
  "timestamp": 1769041660089,
  "chain": 84532,
  "commit": null
}