{
  "transactions": [
    {
      "hash": "0x631e1e2a393517e2dfc2794b15978c0264d3be7ef78318c0bfb462c599cfea08",
      "transactionType": "CALL",
      "contractName": null,
      "contractAddress": "0x0000000071727de22e5e9d8baf0edac6f37da032",
      "function": "depositTo(address)",
      "arguments": [
        "0x29cB60c860F1D7fAc46F3d4154b2A427FC3ac3f6"
      ],
      "transaction": {
        "from": "0x16dd701a8d550951ad2f61808667ee2842ff645a",
        "to": "0x0000000071727de22e5e9d8baf0edac6f37da032",
        "gas": "0xf606",
        "value": "0x38d7ea4c68000",
        "input": "0xb760faf900000000000000000000000029cb60c860f1d7fac46f3d4154b2a427fc3ac3f6",
        "nonce": "0x83",
        "chainId": "0x14a34"
      },
      "additionalContracts": [],
      "isFixedGasLimit": false
    }
  ],
  "receipts": [
    {
      "status": "0x1",
      "cumulativeGasUsed": "0x64a439",
      "logs": [
        {
          "address": "0x0000000071727de22e5e9d8baf0edac6f37da032",
          "topics": [
            "0x2da466a7b24304f47e87fa2e1e5a81b9831ce54fec19055ce277ca2f39ba42c4",
            "0x00000000000000000000000029cb60c860f1d7fac46f3d4154b2a427fc3ac3f6"
          ],
          "data": "0x00000000000000000000000000000000000000000000000000038d7ea4c68000",
          "blockHash": "0x3b447db67c303e6e68ceb1ad1dab5031c2c773d96c26cfd9ab1d5fe2b3eebcd8",
          "blockNumber": "0x22f0973",
          "blockTimestamp": "0x697171c6",
          "transactionHash": "0x631e1e2a393517e2dfc2794b15978c0264d3be7ef78318c0bfb462c599cfea08",
          "transactionIndex": "0x6",
          "logIndex": "0x27",
          "removed": false
        }
      ],
      "logsBloom": "0x00000000000000000000000000000000000000000000000000000000000000000040000000000000000000000000000000000000000000000000000000000000000000000000000000000000000000000040000000000000000000000000200000000000000800000000000000000000000000000000000000000000000200000000000000000000000000000000000000000000000000000000000000000000000000000000000000000000000000000000000000000000000000000000000000000000000000400000000000000000000000000000000000000000000000000040002000000000000000000000000000000400000000000000000000000000",
      "type": "0x2",
      "transactionHash": "0x631e1e2a393517e2dfc2794b15978c0264d3be7ef78318c0bfb462c599cfea08",
      "transactionIndex": "0x6",
      "blockHash": "0x3b447db67c303e6e68ceb1ad1dab5031c2c773d96c26cfd9ab1d5fe2b3eebcd8",
      "blockNumber": "0x22f0973",
      "gasUsed": "0xb21f",
      "effectiveGasPrice": "0x124f80",
      "blobGasUsed": "0x79e0",
      "from": "0x16dd701a8d550951ad2f61808667ee2842ff645a",
      "to": "0x0000000071727de22e5e9d8baf0edac6f37da032",
      "contractAddress": null,
      "daFootprintGasScalar": "0x138",
      "l1BaseFeeScalar": "0x44d",
      "l1BlobBaseFee": "0x36a75b7",
      "l1BlobBaseFeeScalar": "0xa118b",
      "l1Fee": "0x15446cf6b",
      "l1GasPrice": "0x4136c2de",
      "l1GasUsed": "0x640"
    }
  ],
  "libraries": [],
  "pending": [],
  "returns": {},
  "timestamp": 1769042374511,
  "chain": 84532,
  "commit": null
}