{
  "transactions": [
    {
      "hash": "0x64a1f324017b5d912fdceb052b2a0118ae4b403b08dae12e4dcd85c9d380264d",
      "transactionType": "CALL",
      "contractName": null,
      "contractAddress": "0x0000000071727de22e5e9d8baf0edac6f37da032",
      "function": "depositTo(address)",
      "arguments": [
        "0x128c7fA5BdF093Aaa6f70Fe8A0C5FbAc6B8771E0"
      ],
      "transaction": {
        "from": "0x16dd701a8d550951ad2f61808667ee2842ff645a",
        "to": "0x0000000071727de22e5e9d8baf0edac6f37da032",
        "gas": "0xa2cf",
        "value": "0x2386f26fc10000",
        "input": "0xb760faf9000000000000000000000000128c7fa5bdf093aaa6f70fe8a0c5fbac6b8771e0",
        "nonce": "0x51",
        "chainId": "0x14a34"
      },
      "additionalContracts": [],
      "isFixedGasLimit": false
    }
  ],
  "receipts": [
    {
      "status": "0x1",
      "cumulativeGasUsed": "0x5e556a",
      "logs": [
        {
          "address": "0x0000000071727de22e5e9d8baf0edac6f37da032",
          "topics": [
            "0x2da466a7b24304f47e87fa2e1e5a81b9831ce54fec19055ce277ca2f39ba42c4",
            "0x000000000000000000000000128c7fa5bdf093aaa6f70fe8a0c5fbac6b8771e0"
          ],
          "data": "0x0000000000000000000000000000000000000000000000000027138acc1bbca0",
          "blockHash": "0x5edeb9fdc85be71db39de2419d9a1604a2da7567de2f1510c3175690405fa94c",
          "blockNumber": "0x22c97ba",
          "blockTimestamp": "0x696c8e54",
          "transactionHash": "0x64a1f324017b5d912fdceb052b2a0118ae4b403b08dae12e4dcd85c9d380264d",
          "transactionIndex": "0x1e",
          "logIndex": "0x7d",
          "removed": false
        }
      ],
      "logsBloom": "0x00000000000000000000000000000000000000000000000000000000000000000000400000000000000000000000000000000000000000000000000000000000000000000000000000000000000000000040000000100000000000000000200000000000000800000000000000000000000000000000000000000000000200000000000000000000000000000000000000000000000000000000000000000000000000000000000000000000000000000000000000000000001000000000000000000000000000400000000000000000000000000000000000000000000000000040000000000000000000000000000000000000000000000000000000000000",
      "type": "0x2",
      "transactionHash": "0x64a1f324017b5d912fdceb052b2a0118ae4b403b08dae12e4dcd85c9d380264d",
      "transactionIndex": "0x1e",
      "blockHash": "0x5edeb9fdc85be71db39de2419d9a1604a2da7567de2f1510c3175690405fa94c",
      "blockNumber": "0x22c97ba",
      "gasUsed": "0x6f53",
      "effectiveGasPrice": "0x124f80",
      "blobGasUsed": "0x79e0",
      "from": "0x16dd701a8d550951ad2f61808667ee2842ff645a",
      "to": "0x0000000071727de22e5e9d8baf0edac6f37da032",
      "contractAddress": null,
      "daFootprintGasScalar": "0x138",
      "l1BaseFeeScalar": "0x44d",
      "l1BlobBaseFee": "0x3a7cd2a",
      "l1BlobBaseFeeScalar": "0xa118b",
      "l1Fee": "0x15b3f9349",
      "l1GasPrice": "0x3c32359d",
      "l1GasUsed": "0x640"
    }
  ],
  "libraries": [],
  "pending": [],
  "returns": {},
  "timestamp": 1768722003269,
  "chain": 84532,
  "commit": null
}